:020000040800F2
:100000004825002019010008CD1900089F15000897
:10001000C91900087F130008B9200008000000007B
:10002000000000000000000000000000111F000898
:1000300083130008000000000F1F0008131F0008B2
:1000400033010008330100083301000833010008C0
:10005000330100083301000835140008711400084A
:1000600033010008330100083301000833010008A0
:100070003301000833010008330100083301000890
:100080003301000833010008330100083301000880
:100090003301000833010008330100083301000870
:1000A0003301000833010008330100083301000860
:1000B00033010008A11F00083301000833010008C4
:1000C0003301000833010008330100083301000840
:1000D00033010008CD1F0008392000083301000853
:1000E000330100083301000833010008000000005C
:1000F0000000000000000000000000000000000000
:1001000033010008DFF80CD000F00CFC0048004779
:100110001536000848250020064880470648004755
:10012000FEE7FEE7FEE7FEE7FEE7FEE7FEE7FEE7A7
:10013000FEE7FEE71D1F000805010008D2B201E03E
:1001400000F8012B491EFBD270470022F6E710B5DC
:1001500013460A4604461946FFF7F0FF204610BD35
:1001600030B505462A460B4612F8010B13F8014B31
:1001700008B1A042F8D01CB1002802D06D1CF1E7F4
:10018000284630BD10B5002200E0521C835C8C5C18
:10019000A34201D1002BF8D1D8B2E1B2401A10BD70
:1001A000F0B480EA0102D40F4200B2EB410F02D258
:1001B0000246084611464A0042D0C30DDDB2C1F3E3
:1001C000C752AD1A202D35DAC1F3160141F40002F1
:1001D00004B15242C5F1200602FA06F12A41104448
:1001E000B3EBD05F23D0C4B1012DA0EBC35009DC29
:1001F000F0BC4FF0004202EAC352DBB200F500004F
:1002000000F0EDBA400000F1807000EBC350A0F1A7
:10021000807040EAD170490009E0490841EAC071A4
:10022000A0EBC35000F50000400800EBC350F0BC49
:1002300000F0CCBA6142012202EB4101001BF6E75B
:10024000F0BC704781F00041AAE780F00040A7E7CA
:1002500080EA010210B502F00043400022D04A00BB
:100260001FD0010E01EB1261C0F35600C2F356021B
:1002700040F4000042F40002A0FB022000047F3999
:10028000140400D0401C50EA124001D44000491E22
:10029000C2B20C0604EBD010401C4008802A02D0E9
:1002A00003E0002010BD20F00100002900DA00204A
:1002B000184310BD30B480EA010202F0004530F06E
:1002C000004221F0004013D090B1C30DD40DC2F311
:1002D0001601C0F31600E41A41F4000140F40002D4
:1002E0007D34914201D3641C00E04900002C02DA05
:1002F00030BC002070474FF400000023914201D32E
:10030000891A034340084FEA4101F7D151B19142A4
:1003100002D14FF0004105E002D24FF0010101E0AF
:100320006FF0010103EBC450284430BC00F04EBA1A
:100330002DE9FE4F804681EA0300C00F0C46009075
:1003400021F0004123F00045B8EB0200A94105D29D
:100350004046214690461C460B46024623F000408C
:10036000104347D0270DC7F30A00C3F30A51029088
:10037000401A019040286BDAC3F3130040F4801B4D
:100380000098924620B10023D2EB030A63EB0B0BDB
:1003900001985946C0F14002504600F0E6F9064681
:1003A0000D4650465946019A00F0FEF910EB080040
:1003B0006141002487EA115284EAE7731A4340D06E
:1003C000009A62B3019A012A4FEA075215DC001B1A
:1003D00061EB02014FF0004202EA0752CDE9004210
:1003E000001C41F5801132462B4600F035FA03B06F
:1003F000BDE8F08F40462146F9E7001B61EB0201A2
:10040000001C41F5801300185B412018A2F500176D
:1004100047EB030140EAD570B6196D4111E06D0854
:100420004FEA360645EAC0754FEA0752001B61EBFA
:100430000201001C41F5801149084FEA3000001903
:10044000514132462B4603B0BDE8F04F00F0F5B9FC
:100450000098012240000023D0EB020263EBE0731E
:10046000009821464FEAE074B8EB000061EB04010C
:10047000E9E783F000435BE781F0004158E72DE9AD
:10048000FE4F81EA030404F0004421F0004100948F
:100490004FF0000B23F0004350EA01045ED052EA13
:1004A00003045BD0C3F30A54C1F30A552C44A4F2ED
:1004B000F3340194A0FB0254C1F3130141F4801101
:1004C000C3F3130343F4801301FB024400FB034E08
:1004D000840A970A44EA815447EA8357A4FB0768D1
:1004E00002958D0A05FB07854FEA932C04FB0C54FB
:1004F0002705029D4FEA065847EA1637B5EB08056F
:100500006EEB070C870E920E47EA811742EA8312C0
:10051000A7FB0201B6EB0B0164EB00042B0D43EAD1
:100520000C335E1844EB1C50DA465146E7FB0201DF
:10053000C5F313044FEA0B3343EA14534FEA043272
:10054000019C43EA0603A4F10C040294009CCDE94B
:1005500000B400F081F903B0BDE8F08F002001463F
:10056000F9E72DE9F04D81EA030404F0004B21F096
:10057000004514464FF0000A23F0004150EA0502FE
:1005800020D054EA01021DD0C5F30A570246C5F334
:100590001303C1F31300C1F30A5640F4801543F46A
:1005A0008013A7EB0608101BD64608F2FD3873EB44
:1005B000050002D308F1010801E092185B41B8F18F
:1005C000000F03DA00200146BDE8F08D00204FF453
:1005D0008011064684460EE0171B73EB050705D312
:1005E000121B63EB050306434CEA010C49084FEA72
:1005F000300092185B4150EA0107EDD152EA030046
:1006000012D082EA040083EA0501084305D0101BDA
:10061000AB4106D20122002306E000224FF0004346
:1006200002E06FF0010253101AEB06004CEB085188
:1006300010EB0A0041EB0B01BDE8F04D00F0FDB8F6
:10064000C10F80EAE0700844CA079623002100F039
:10065000C6B896230022114600F0C1B820F0004031
:10066000C10DC0F3160040F400007F2901DA00201C
:100670007047962903DCC1F19601C840704796394E
:100680008840704700F0004230F000400AD0C10DB1
:1006900001F56071C0F3160042EA0151C20840073B
:1006A00011437047002001467047000030B5041E1A
:1006B00071F1000404DB4FF00044404264EB01019F
:1006C000141E73F1000405DB1C464FF00043524238
:1006D00063EB0403994208BF904230BD30B50B462E
:1006E000014600202022012409E021FA02F59D4262
:1006F00005D303FA02F5491B04FA02F52844151E36
:10070000A2F10102F1DC30BD2DE9F05F05460020C9
:1007100092469B4688460646814640241BE0284672
:1007200041464746224600F02FF853465A46C01A23
:10073000914110D311461846224600F016F82D1AA2
:1007400067EB01084F4622460120002100F00DF81A
:1007500017EB00094E41201EA4F10104DFDC4846DE
:1007600031462A464346BDE8F09F202A04DB203A62
:1007700000FA02F1002070479140C2F1200320FAF4
:1007800003F3194390407047202A04DB203A21FAF2
:1007900002F00021704721FA02F3D040C2F120029A
:1007A0009140084319467047202A06DBCB17203AB0
:1007B00041FA02F043EAE07306E041FA02F3D04066
:1007C000C2F1200291400843194670470029A8BF92
:1007D0007047401C490008BF20F00100704710B46A
:1007E000B0FA80FC00FA0CF050EA010404BF10BC1F
:1007F000704749B1CCF1200421FA04F411FA0CF14C
:1008000018BF012121430843A3EB0C01CB1D4FEA84
:1008100000614FEA102042BF002010BC704700EB7F
:10082000C35010440029A4BF10BC7047401C4900AD
:1008300008BF20F0010010BC704710B5141E73F102
:10084000000408DA401C41F1000192185B411A4390
:1008500001D120F0010010BD2DE9F04D92469B46DC
:1008600011B1B1FA81F202E0B0FA80F22032904682
:10087000FFF77BFF04460F4640EA0A0041EA0B01FE
:1008800053465A46084313D0114653EA010019D083
:10089000C8F140025046FFF777FF05460E46504626
:1008A00059464246FFF761FF084305D0012004E0A6
:1008B00020463946BDE8F08D0020054346EAE07643
:1008C0002C4337430A986305E40AA0EB0800002292
:1008D000FD0A44EA47540A3002D500200146E9E700
:1008E000010510196941DDE9084500196941BDE8B4
:1008F000F04DA2E7C1F30A52C1F3130140F2FF33F6
:1009000041F480119A4202DA00200146704740F219
:1009100033439A42A2F2334202DC5242FFF734BF21
:10092000FFF723BF064C074D06E0E06840F00103E7
:1009300094E8070098471034AC42F6D3FFF7E6FB83
:10094000384A0008584A000800B587B040F20260F3
:1009500003F0A2F840F2096003F09EF84FF4A060A3
:1009600003F09AF8032002F0E1FF30230322002174
:100970003B4802F0BDFD00213A4802F005FC3A4830
:10098000009000208DF818003848029001208DF862
:100990001900000201908000039000208DF81A00D9
:1009A00002200490000305906A4600212D4802F0C1
:1009B00023FC00212B4802F0CEFB0021294802F045
:1009C000B1FB29484C3802F035F8002002F0A4F8B9
:1009D0000122110224484C3802F011F901220221AF
:1009E00021484C3802F00BF94FF4602201211E48D7
:1009F0004C3802F078F8012211461B484C3802F0BE
:100A000053F8002118484C3802F009F8022201215D
:100A100015484C3801F0E0FF05230422002112485C
:100A20004C3802F087F805231A4601210E484C384D
:100A300002F080F80C484C3802F02DF8012000F04C
:100A4000BFFC09484C3801F0B2FF07484C3802F0AF
:100A50001DF8012104484C3802F0C2F807B000BD6F
:100A600000080140000002404C2401402200002008
:100A700010B500F0ADFD10BD70B500244FF400615D
:100A8000164802F0E1FC002524E06006040E4FF455
:100A90008061124802F0D8FC00BF042000F09CFCEA
:100AA00000BF4FF400610D4802F078FD08B144F03A
:100AB000010400BF042000F08FFC00BF4FF48061F0
:100AC000064802F0BFFC00BF042000F085FC00BF18
:100AD000681CC5B2082DD8DB204670BD000C014053
:100AE00010B54FF40061114802F0ACFC00BF0420C7
:100AF00000F072FC00BF4FF480610C4802F0A4FCCF
:100B000000BF042000F068FC00BF4FF4806107487C
:100B100002F098FC00BF042000F05EFC00BF4FF420
:100B20000061024802F090FC10BD0000000C014082
:100B300070B5044600252AE004F0800028B14FF487
:100B40000061144802F080FC04E04FF40061114899
:100B500002F078FC6006040E00BF042000F03CFCAC
:100B600000BF4FF480610B4802F06EFC00BF042010
:100B700000F032FC00BF4FF48061064802F062FCD6
:100B800000BF042000F028FC00BF681CC5B2082D7F
:100B9000D2DB70BD000C014010B54FF400610E486F
:100BA00002F052FC00BF042000F016FC00BF4FF41E
:100BB0008061094802F048FC00BF042000F00CFCF2
:100BC00000BF4FF48061044802F03CFC00BF0420E9
:100BD00000F002FC00BF10BD000C014010B54FF446
:100BE0000061114802F030FC4FF480610E4802F0C1
:100BF0002BFC00BF042000F0EFFB00BF4FF40061AE
:100C0000094802F01FFC00BF042000F0E5FB00BF14
:100C10004FF48061044802F015FC00BF042000F08E
:100C2000DBFB00BF10BD0000000C014010B54FF40D
:100C300000610E4802F006FC00BF042000F0CCFB6F
:100C400000BF4FF48061094802F0FEFB00BF0420A2
:100C500000F0C2FB00BF4FF40061044802F0F4FB57
:100C600000BF042000F0B8FB00BF10BD000C014025
:100C700010B500244FF40061164802F0E5FB00BFF8
:100C8000042000F0A9FB00BF4FF48061114802F07E
:100C9000DBFB00BF042000F09FFB00BF07E0601CEF
:100CA000C4B2FA2C03D9FFF7C1FF002010BD4FF4E6
:100CB0000061084802F072FC0028F0D14FF4806116
:100CC000044802F0BFFB00BF042000F085FB00BF1A
:100CD0000120EBE7000C014010B5FFF7C9FE00BF93
:100CE00049F6404000F078FB00BFFFF777FF712026
:100CF000FFF71EFFFFF7BCFF18B9FFF797FF0020B3
:100D000010BDFFF7B9FE0446FFF746FFFFF78EFF61
:100D100004F00800E8B9FFF761FF7020FFF708FF53
:100D2000FFF7A6FFBE20FFF703FFFFF7A1FF082094
:100D3000FFF7FEFEFFF79CFF0020FFF7F9FEFFF72D
:100D400097FFFFF773FF00BF42F2107000F044FB03
:100D500000BF0120D4E700002DE9FC4705460E4600
:100D6000FFF73CFF7020FFF7E3FEFFF781FF20B99C
:100D7000FFF75CFF0020BDE8FC87AC20FFF7D8FE42
:100D8000FFF776FF3320FFF7D3FEFFF771FF002058
:100D9000FFF7CEFEFFF76CFFFFF748FF502000F093
:100DA0000FFBFFF71BFF7120FFF7C2FEFFF760FF8D
:100DB00018B9FFF73BFF0020DDE700240CE0FFF748
:100DC0005BFE0DF80400052C02D1FFF7E5FE01E003
:100DD000FFF786FE601CC4B2062CF0DBFFF726FF8F
:100DE0009DF8000000F08000B0BB9DF801000003FA
:100DF0009DF8021040EA01109DF8031040EA211707
:100E00009DF803000007000B9DF8041040EA012044
:100E10009DF8051040EA01083846FFF71AFC8146A4
:100E20004FF09341FFF746FA04460D49FFF710FAD9
:100E300030604046FFF70DFC82464FF09341FFF7CC
:100E400039FA81460749FFF703FA04460649FFF7D6
:100E5000F9F9286001208EE7FFE700208BE700000A
:100E60000000C842000048430000484210B500F0AE
:100E7000C9FB10BD70B500244FF40061134802F0A7
:100E8000E3FA00251EE06006040E4FF480610F486F
:100E900002F0DAFA042000F093FA4FF400610B48F4
:100EA00002F07CFB08B144F00104042000F088FA51
:100EB0004FF48061054802F0C5FA042000F080FA82
:100EC000681CC5B2082DDEDB204670BD000C014059
:100ED00010B54FF400610E4802F0B4FA042000F09F
:100EE0006FFA4FF480610A4802F0AEFA042000F075
:100EF00067FA4FF48061064802F0A4FA042000F07B
:100F00005FFA4FF40061024802F09EFA10BD000043
:100F1000000C014070B50446002524E004F0800078
:100F200028B14FF40061114802F08EFA04E04FF44A
:100F300000610E4802F086FA6006040E042000F0FC
:100F40003FFA4FF48061094802F07EFA042000F075
:100F500037FA4FF48061054802F074FA042000F07B
:100F60002FFA681CC5B2082DD8DB70BD000C0140FB
:100F700010B54FF400610B4802F066FA042000F04F
:100F80001FFA4FF48061074802F05EFA042000F077
:100F900017FA4FF48061034802F054FA042000F07D
:100FA0000FFA10BD000C014010B54FF400610E485F
:100FB00002F04AFA4FF480610B4802F045FA04202F
:100FC00000F0FEF94FF40061074802F03BFA0420FC
:100FD00000F0F6F94FF48061034802F033FA042080
:100FE00000F0EEF910BD0000000C014010B54FF408
:100FF00000610B4802F026FA042000F0E1F94FF4FA
:101000008061074802F020FA042000F0D9F94FF47B
:101010000061034802F018FA042000F0D1F910BD75
:10102000000C014010B500244FF40061134802F099
:101030000BFA042000F0C4F94FF480610F4802F06D
:1010400003FA042000F0BCF907E0601CC4B2FA2CDB
:1010500003D9FFF7CBFF002010BD4FF40061074814
:1010600002F09CFA0028F0D14FF48061034802F0AE
:10107000E9F9042000F0A4F90120EDE7000C01409B
:1010800000B587B0FFF7F2FE012206A9D02000F0DC
:1010900083F89DF81800582802D0002007B000BD42
:1010A00018226946882000F077F89DF800009DF826
:1010B000011040EA0120374908809DF802009DF8A0
:1010C000031040EA012000B2324948809DF8040034
:1010D0009DF8051040EA012000B22E4988809DF855
:1010E00006009DF8071040EA01202A49C8809DF8B3
:1010F00008009DF8091040EA012000B22549088146
:101100009DF80A009DF80B1040EA012000B2214929
:1011100048819DF80C009DF80D1040EA012000B2B6
:101120001C4988819DF80E009DF80F1040EA0120AF
:1011300000B21849C8819DF810009DF8111040EACE
:10114000012000B2134908829DF812009DF8131087
:1011500040EA012000B20F4948829DF814009DF832
:10116000151040EA012000B20A4988829DF8160055
:101170009DF8171040EA012000B20649C8822721D5
:10118000F42000F0E5F80021F52000F0E1F801205E
:1011900084E70000300500202DE9F04107460E46A7
:1011A0001546FFF701FFEE20FFF7B4FEFFF73AFF09
:1011B0003846FFF7AFFEFFF735FFFFF7F5FEEF20EC
:1011C000FFF7A8FEFFF72EFF00240CE0FFF752FE0A
:1011D0003055681EA04202D1FFF7CAFE01E0FFF7BA
:1011E00077FE601CC4B2AC42F0DBFFF7FFFEBDE847
:1011F000F08100002DE9FE4F80460F46062201A92E
:10120000F720FFF7C9FF9DF8040000039DF80510C3
:1012100040EA01109DF8061040EA211A9DF80700E7
:1012200000039DF8081040EA01109DF8091040EAFB
:1012300021194FEAE90043490988A0EB41004149DF
:10124000B1F902104843C4123E480088C0EB29108F
:10125000404300133B49B1F9041048438613A019D9
:10126000394908600846006800EB800080304FEA8A
:10127000202B5846FFF7E4F934490090FFF71AF89D
:10128000C8F80000304800684FF47A41C1EB6004B0
:10129000A0104043C0122B49B1F9101000FB01F619
:1012A0002848B0F90E00604306EB4006B01025490F
:1012B000898900EB0146A010404340132149B1F950
:1012C0000A104843C1101F48B0F90800604301EB01
:1012D0006000841404F500401A49C9884843C413C7
:1012E0001CB900203860BDE8FE8FCAF58010A0EB65
:1012F000263040F6354100FB01F5B5F1004F03D231
:101300006800B0FBF4F502E0B5FBF4F04500E80836
:101310004043400B0B49B1F9161048430413A80889
:101320000849B1F9141048434613A0190549B1F909
:101330001210084405EB20152846FFF78AF938609B
:1013400000BFD0E730050020280000200000C84280
:1013500070B505460C46FFF727FEEE20FFF7DAFDD5
:10136000FFF760FE2846FFF7D5FDFFF75BFE20463E
:10137000FFF7D0FDFFF756FEFFF738FE70BD00BF48
:10138000FEE770470C48006820F080700A4908604A
:101390000846006840F0807008600848006820F047
:1013A0000100064908600846006840F00100086036
:1013B0000020486070470000FCED00E0001000E0F5
:1013C00070B50446002504E04FF47A7000F004F88C
:1013D0006D1CA542F8D370BD2DE9F04106461348B7
:1013E00044680027012002F0C5FA07461048B7FB01
:1013F000F0F000FB06F50D4840682844A0420CD2EE
:1014000000BF0A484068A042FBD800BF07484168B7
:101410006042281A8142F9D305E000BF03484068C2
:10142000001BA842FAD3BDE8F0810000001000E0E4
:1014300040420F0010B5012001F0E6FF012812D153
:101440000121094802F0AAF850B90221064802F029
:10145000A5F828B905480088401E00B20349088055
:10146000012001F0CBFF10BD000C01401C0000204A
:1014700010B5022001F0C8FF012812D1022109484D
:1014800002F08CF850B90121064802F087F828B91B
:1014900005480088401C00B203490880022001F082
:1014A000ADFF10BD000C01401C0000200349B1F944
:1014B00000000021014A1180704700001C0000203C
:1014C00010B540F2036002F0E7FA4FF4C06002F09A
:1014D000E3FA03231A464821144802F009F80021D0
:1014E000012001F0B9FF0121084601F0B5FF0122FA
:1014F0000021104601F024FF01220021022001F00A
:101500001FFF012001F07AFF022001F077FF4FF466
:10151000A06002F0F7F901221146062002F09CF9C2
:1015200002220121072002F097F910BD000C0140B2
:1015300001484088704700002200002000B5FFF7F6
:10154000F7FF0146B1F57A6F01DD4FF47A6128208B
:1015500091FBF0F0C0F16400C0B200BD014800880A
:10156000704700002200002000B5FFF7F7FF01469A
:1015700000BF40F6F570814200DD0146B1F5AF6F66
:1015800001DA4FF4AF6140F6F570401A6423584316
:1015900040F67D2390FBF3F0C2B2104600BD00BFC1
:1015A000FEE7000010B540F2036002F075FAC023B8
:1015B00003221421054801F09BFF4021034801F05C
:1015C00043FF8021014801F03FFF10BD000C0140A6
:1015D00010B540F2036002F05FFA4FF4406303225B
:1015E0001421074801F084FF4FF48061044801F0A2
:1015F0002BFF4FF40061024801F026FF10BD0000F0
:10160000000C014010B540F2036002F045FA4FF4BF
:10161000406303221421074801F06AFF4FF4806100
:10162000044801F011FF4FF40061024801F00CFF83
:1016300010BD0000000C014010B5FFF7B3FF10BD56
:1016400010B540F2026002F027FA03231A46142173
:10165000054801F04DFF0121034801F0F5FE02218C
:10166000014801F0F1FE10BD0008014010B5FFF780
:10167000E7FF10BD70B500240221154801F0E4FE1B
:10168000002521E06006040E0121114801F0DCFE76
:1016900000BF0420FFF7A0FE00BF02210C4801F0AC
:1016A0007DFF08B144F0010400BF0420FFF794FE61
:1016B00000BF0121064801F0C5FE00BF0420FFF76E
:1016C0008BFE00BF681CC5B2082DDBDB204670BD59
:1016D0000008014010B502210F4801F0B3FE00BF21
:1016E0000420FFF779FE00BF01210B4801F0ACFE9A
:1016F00000BF0420FFF770FE00BF0121064801F083
:10170000A1FE00BF0420FFF767FE00BF02210248D0
:1017100001F09AFE10BD00000008014070B50446BB
:10172000002526E004F0800020B10221124801F0DB
:101730008BFE03E00221104801F084FE6006040ED7
:1017400000BF0420FFF748FE00BF01210A4801F056
:101750007BFE00BF0420FFF73FFE00BF01210648CB
:1017600001F070FE00BF0420FFF736FE00BF681CCA
:10177000C5B2082DD6DB70BD0008014010B50221AE
:101780000D4801F061FE00BF0420FFF725FE00BFF9
:101790000121094801F058FE00BF0420FFF71CFE9C
:1017A00000BF0121044801F04DFE00BF0420FFF7F7
:1017B00013FE00BF10BD00000008014010B502215B
:1017C0000F4801F041FE01210D4801F03DFE00BF30
:1017D0000420FFF701FE00BF0221094801F032FE9C
:1017E00000BF0420FFF7F8FD00BF0121044801F00D
:1017F00029FE00BF0420FFF7EFFD00BF10BD000071
:101800000008014010B502210D4801F01BFE00BF89
:101810000420FFF7E1FD00BF0121094801F014FE9B
:1018200000BF0420FFF7D8FD00BF0221044801F0EB
:101830000BFE00BF0420FFF7CFFD00BF10BD00006E
:101840000008014010B500240221154801F0FCFDFC
:1018500000BF0420FFF7C0FD00BF0121104801F0C8
:10186000F3FD00BF0420FFF7B7FD00BF07E0601CD9
:10187000C4B2FA2C03D9FFF7C5FF012010BD022125
:10188000074801F08BFE0028F1D10121044801F046
:10189000D9FD00BF0420FFF79FFD00BF0020EDE74A
:1018A0000008014010B580210F4801F0CDFD402116
:1018B0000D4801F0C9FD00BF0420FFF78DFD00BFFA
:1018C0008021094801F0BEFD00BF0420FFF784FD20
:1018D00000BF4021044801F0B5FD00BF0420FFF720
:1018E0007BFD00BF10BD0000000C014010B5802141
:1018F0000D4801F0A7FD00BF0420FFF76DFD00BFFC
:101900004021094801F0A0FD00BF0420FFF764FD5D
:1019100000BF8021044801F097FD00BF0420FFF7BD
:101920005BFD00BF10BD0000000C0140F8B50020B9
:1019300000900024FFF742FF4620FFF7EFFEFFF77D
:1019400081FF18B1FFF75EFF0020F8BD1020FFF700
:10195000E5FEFFF777FF18B1FFF754FF0020F4E72B
:10196000FFF750FFB420FFF72BFDFFF727FF4720BD
:10197000FFF7D4FEFFF766FF18B1FFF743FF002023
:10198000E3E7FFF777FE8DF80000FFF7A3FEFFF710
:1019900071FE8DF80100FFF7F1FEFFF733FF9DF8B0
:1019A00001009DF8001040EA01242046FEF751FE98
:1019B00006460449FEF77EFC0546FEF74FFE84B25C
:1019C0002046C2E79A99993F00BFFEE770470000A2
:1019D00000200CE0002106E00022064B03EBC013C0
:1019E0005A544A1CD1B28029F6DB421CD0B20828D6
:1019F000F0DB7047B00000202DE9F04304460D46AF
:101A000016461F46284638E0224631E0002A2DDBE4
:101A10007F2A2BDC002829DB3F2827DC4FEAE07CEB
:101A200000EB5C7C4FEAEC0CDFF8588008EBCC1C38
:101A30001CF802C003464FEAE07800EB58784FEA02
:101A4000E808A0EBC8094FF0010808FA09F82CEAE9
:101A5000080C01464FEAE07800EB58784FEAE808B6
:101A6000DFF8209009EBC81808F802C0511C0AB230
:101A7000A1199142CADC411C08B2E9198142C3DCB8
:101A8000BDE8F083B000002070B5054600242EE0CC
:101A90004021214801F0D6FC00BF0220FFF79CFC4A
:101AA00000BF80202041284020B180211A4801F049
:101AB000CBFC03E08021184801F0C4FC00BF0220E9
:101AC000FFF78AFC00BF4021134801F0BDFC00BFB6
:101AD0000220FFF781FC00BF40210F4801F0B2FC5B
:101AE00000BF0220FFF778FC00BF601CC4B2082CC6
:101AF000CEDB4021084801F0A7FC00BF0220FFF721
:101B00006BFC00BF4021044801F09CFC00BF022098
:101B1000FFF762FC00BF70BD000C014010B5FFF77D
:101B20008BFDAE2000F0CCF9D52000F0C9F9802063
:101B300000F0C6F9A82000F0C3F93F2000F0C0F97A
:101B4000D32000F0BDF9002000F0BAF9402000F0E9
:101B5000B7F9A12000F0B4F9C82000F0B1F9DA20FB
:101B600000F0AEF9122000F0ABF9812000F0A8F9E6
:101B7000CF2000F0A5F9D92000F0A2F9F12000F063
:101B80009FF9DB2000F09CF9302000F099F9A420A7
:101B900000F096F9A62000F093F98D2000F090F95E
:101BA000142000F08DF9AF2000F08AF9FFF710FF44
:101BB00000F072F910BD10B50246012000E050435C
:101BC0000B1EA1F10101FAD110BD70B505460C46FE
:101BD00045F0B00000F074F9102141EA141000F053
:101BE0006FF904F00F0000F06BF970BDF8B5064610
:101BF0000F4614461D46082D0CD1A4F120000E49B5
:101C000001EB00101023082239460090304600F006
:101C100017F80FE0062D0DD1A4F1200000EB4000D5
:101C2000064901EB40000823062239460090304661
:101C300000F006F8F8BD0000F6400008E64600088F
:101C40002DE9FF4F80460E469146DDF834B0002561
:101C500000244A4631464046039BFFF7CDFE00BFB5
:101C60005EE0002558E008EB0500002852DB08EB99
:101C700005007F284EDC3046F11706EB5171C91084
:101C80000FB2F11706EB5171C910A6EBC10A002E75
:101C900005DA781E07B20AF108000FFA80FA38193F
:101CA000002817DB3819072814DC3819224901EB02
:101CB000C01008EB0501405C04FB09511BF8011042
:101CC00001FA0AF1084339191B4A02EBC11108EB6A
:101CD000050288543819401C00281BDB3819401CA9
:101CE000072817DC3819401C134901EBC01008EB1A
:101CF0000501405C04FB09511BF80110CAF1080200
:101D0000114108433919491C0B4A02EBC11108EB78
:101D100005028854681CC5B24D45A4DB601CC4B2E2
:101D20000399481EC11700EB5171012202EBE1013A
:101D3000A14296DCBDE8FF8FB00000202DE9F047FE
:101D40000646894617461D46DDF82080002417E028
:101D5000281B411E0A20FFF72EFFB7FBF0F00A21D7
:101D6000B0FBF1F201FB120000F1300A04FB086144
:101D700008B2434652464946FFF738FF601CC4B2DA
:101D8000AC42E5DBBDE8F0872DE9FE4F07468A4609
:101D9000144698460025AB46002672E0605D00F0D0
:101DA000800058B94FF0010B2846691C8DB2205CA9
:101DB0008DF8040000208DF8050013E04FF0020BB1
:101DC0002846691C8DB2205C8DF80400605D00B966
:101DD0005AE02846691C8DB2205C8DF80500002071
:101DE0008DF80600BBF1010F0BD19DF80420B91945
:101DF00008B243465146FFF7F9FE06EB080086B2EB
:101E00003FE04FF000090EE0C9EBC90101EB810191
:101E10001F4A881801A9FEF7B5F900B90EE009F1CB
:101E200001001FFA80F9C9EBC90101EB8101184AD1
:101E3000881818A1FEF7A6F90028E5D100BFB8F16F
:101E4000080F12D1C9EBC90000EB8000104908440B
:101E5000C01CB919009008B210231A465146FFF76A
:101E6000EFFE06F1100086B20BE0B8F1060F08D1C4
:101E7000B91908B206233F225146FFF7B7FEB01D3D
:101E800086B2605D002889D100BFBDE8FE8F0000EA
:101E9000204900080000000010B500240BE00021DC
:101EA0002046FFF792FE054901EBC410802100F0A7
:101EB00017F8601CC4B2082CF1DB10BDB000002084
:101EC00010B50446FFF7EEFC7820FFF7DDFD00209B
:101ED000FFF7DAFD2046FFF7D7FDFFF707FD10BD3E
:101EE00070B505460E46FFF7DDFC7820FFF7CCFD08
:101EF0004020FFF7C9FD002404E0285DFFF7C4FD82
:101F0000601CC4B2B442F8DBFFF7F0FC70BD704750
:101F1000704710B501F0FAF810BD000010B51C486C
:101F2000006840F001001A4908600846406820F047
:101F300003004860084600681649084014490860D4
:101F4000084640681449084011494860084600683E
:101F5000104908400E4908600846006820F48020B7
:101F60000860084640680D4908400949486008462D
:101F7000006808490840064908604FF41F0088605F
:101F800001F01CFE00214FF0006001F0C5FC10BD07
:101F900000100240FFFFF6FE0C00FFE8FFFF00F715
:101FA00010B50121074801F022FF012809D10121C4
:101FB000044801F019FF04480078012801D101F01C
:101FC000F5FA10BD000400402100002010B51549AD
:101FD000154802F04CF818B3134801F0C5FFC4B21D
:101FE00012480088802817DA11481049098844549B
:101FF0000E480088401C0D4908800A2C0FD1012092
:102000000C49087009480088802808DA002108482F
:10201000064A1288815402E000200449088000BF6B
:1020200010BD000005030500003801401800002025
:10203000300000201A00002010B51949194802F09C
:1020400016F810B1174801F08FFF1749154802F034
:102050000EF818B3134801F087FFC4B21348008884
:10206000802817DA12481149098844540F4800881B
:10207000401C0E4908800A2C0FD101200D49087020
:102080000A480088802808DA00210948074A12888F
:10209000815402E000200549088000BF10BD000007
:1020A0000005030000440040050305001E00002059
:1020B000B00400202000002000BFFEE70FB4054B55
:1020C00010B503A9044A029800F0DAF810BC5DF8D4
:1020D00014FB0000213400082C00002002E008C896
:1020E000121F08C1002AFAD170477047002001E092
:1020F00001C1121F002AFBD1704700002DE9FF5FCC
:1021000082B00021DDE90430020DDDF840B0034368
:1021100018D044F61050A2F2FF3242431514119821
:1021200001281FD0A5EB0B00401C5FEA000A4FF00E
:1021300000064E4FDFF83891B046504615D5CAF12B
:10214000000413E0119801244AA3012801D16FEA89
:102150000B010298119AC0E90031C0E9024206B0B1
:10216000BDE8F09FCBF10000DFE704460021404AC4
:10217000491842EB0450CDE9001012E0E00707D007
:1021800032463B4640464946FEF779F98046894645
:1021900032463B4610461946FEF771F906460F4691
:1021A0006410002CEAD1DDE90401DDE90023BAF175
:1021B000000F06DAFEF763F942464B46FEF75FF979
:1021C00005E0FEF7CEF942464B46FEF7CAF9044653
:1021D0000E460022284BFEF769FA03D84FF0FF3075
:1021E000014607E00022254B20463146FEF7A0F8C5
:1021F000FEF780FB102409E0002C0ADB0A220023F2
:10220000FEF782FA039B30321A55641E50EA01022F
:10221000F2D1641C039AC4F111031444119A012AE7
:1022200003D0012208430DD10AE0084304D0002066
:102230004FF0110B119072E7A3EB0B056D1E0DE033
:102240005B4504DD4FF0000205F1010504E003DA0F
:102250004FF00002A5F10105002AECD00298119977
:10226000C0E90231C0E9004579E7000000001440F0
:102270000000F03F300000000000F0430000E03FAD
:102280002DE9FF4F95B09B468946064600250FE293
:10229000252877D100242746F84A0121059400E03B
:1022A000044316F8013F203B01FA03F01042F7D136
:1022B00030782A2811D06FF02F033078A0F1300247
:1022C000092A16D8059A44F0020402EB820203EBB5
:1022D00042021044761C0590EFE759F8042B059252
:1022E000002A03DA504244F40054059044F00204FA
:1022F000761C30782E2816D116F8010F44F004040D
:102300002A280DD06FF02F023078A0F13003092B6E
:1023100009D807EB870302EB4303C718761CF3E7E2
:1023200059F8047B761C30786C280FD006DC4C28DA
:1023300017D068280DD06A2814D104E0742810D072
:102340007A280FD10DE044F400140AE044F480141C
:1023500001E044F440147278824202D104F5801402
:10236000761C761C307866280BD013DC582877D082
:1023700009DC002875D04528F6D04628F4D0472837
:102380001AD19DE118E0632835D0642879D06528FA
:1023900012D195E1702873D008DC6728F1D0692844
:1023A0006FD06E280DD06F2806D1B5E073282CD0E1
:1023B000752875D0782874D05A46179990476D1CA7
:1023C00075E1C4F30250022809D003280DD0D9F8D2
:1023D000001004280DD00D6009F1040967E1D9F857
:1023E0000010EA17C1E90052F6E7D9F800100D8095
:1023F000F2E70D70F0E719F8041B8DF800100020CB
:102400008DF80100EA46012003E059F804AB4FF0D3
:10241000FF3061074FF0000102D40DE008F1010127
:102420008846B9420FDA8045F8DB1AF8081000290F
:10243000F4D108E008F1010188468142FADB1AF87C
:1024400008100029F6D105985B46A0EB0807214645
:102450003846179A00F094FA284400EB080507E084
:102460004DE029E10DE01AF8010B5A461799904703
:10247000B8F10108F7D25B4621463846179A13E1B6
:1024800042E00A220092C4F302524FF0000A022AEC
:1024900008D059F804CB032A4FEAEC710AD00DE0BA
:1024A00029E02AE009F1070121F00702F2E802C160
:1024B000914609E00FFA8CFC4FEAEC71042A03D133
:1024C0004FFA8CFC4FEAEC71002907DA0A4600212A
:1024D000DCF1000C61EB02012D2202E0220504D5A3
:1024E0002B228DF80420012203E0E20701D02022F4
:1024F000F7E7904659E00A2102E010220DE0102192
:102500004FF0000A00910BE010224FF0000A44F057
:1025100004040827009203E008224FF0000A00920A
:10252000C4F30252022A05D059F804CB0021032A31
:1025300008D009E009F1070121F00702F2E802C121
:10254000914605E01FFA8CFC042A01D10CF0FF0C27
:102550004FF00008220728D5702806D0009B83F092
:10256000100353EA0A0305D00EE040228DF8042040
:10257000012208E05CEA010206D030228DF8042036
:102580008DF8050002229046009B83F0080353EA71
:102590000A030AD15CEA010201D1620705D53022A3
:1025A0008DF804204FF001087F1E582804D034A075
:1025B00003900EA802900DE036A0F9E7534660465E
:1025C000009AFEF7A1F884460398825C0298401EA8
:1025D000029002705CEA0100F0D1029806A9081A84
:1025E00000F1200A600702D524F4803400E00127BE
:1025F000574502DDA7EB0A0000E0002000EB0A01CE
:10260000009005984144401A0590E00306D45B46CB
:102610002146179A059800F0B3F90544002706E013
:1026200001A85A46C05D179990476D1C7F1C47450D
:10263000F6DBE0030CD55B462146179A059800F0BF
:102640009FF9054404E030205A46179990476D1CC5
:102650000099481E00900029F5DC08E002980299D4
:102660005A460078491C0291179990476D1CBAF19F
:102670000001AAF1010AF1DC65E10000092801006E
:1026800030313233343536373839616263646566E8
:1026900000000000303132333435363738394142AA
:1026A000434445460000000000F058F90544761CFC
:1026B000307800287FF4ECAD19B02846BDE8F08FE3
:1026C000620700D4062709F1070222F0070CFCE894
:1026D0000223E14603F000485FEA080C02D00FF243
:1026E000702C0DE05FEA045C02D50FF2682C07E065
:1026F0005FEAC47C02D00FF2602C01E0AFF2700CF4
:102700004FF0FF3823F00043CDF850C065280CD0BF
:1027100006DC452809D046281DD047283DD13DE09C
:10272000662818D067287ED138E00021112F01DB00
:10273000112000E0781CCDE9000106A90EA8FFF7E2
:10274000DDFCDDE90F010E9A03910021009207F1F3
:10275000010A04914DE04FF000400097CDE90110CF
:1027600006A90EA8FFF7CAFCDDE90F0203920E9B33
:1027700011990022DDF80CA00093049211B9791C84
:1027800000EB010AB7EB0A0004D4C0F1FF3007F1F7
:10279000010A0490AAEB0700019044E0012F00DA3F
:1027A00001270021112F01DD112000E03846CDE97D
:1027B000000106A90EA8FFF7A1FCDDE90F010E9AA2
:1027C0000391002104910092BA4621070CD4039989
:1027D000514500DA8A46BAF1010F05DD009AAAF1E7
:1027E0000101515C302908D0B84202DA10F1040F1F
:1027F00006DA0121CDE9011015E0AAF10101E9E7AE
:10280000002805DC049901440491AAEB000102E0D0
:10281000411C514500DD8A460499401A401C019034
:102820004FF000400290200704D40198504501DB8E
:10283000CDF8048000208DF84F0002980DF14F076D
:10284000B0F1004F25D02B200E9002984FF00208D7
:1028500000280CDA404202902D200E9007E00A2159
:102860000298FDF73BFF3031029007F8011DB8F1E7
:102870000001A8F10108F2DC02980028EFD1791ECE
:102880000E980870307800F0200040F0450007F8FE
:10289000020D12A8C01B00F107081498007800B1BF
:1028A000012000EB0A01019801EBE0710598414419
:1028B000401A401E0590E00306D45B462146179A55
:1028C000059800F05DF805441498007818B15A4650
:1028D000179990476D1CE00324D55B462146179A53
:1028E000059800F04DF805441CE00498002807DB2B
:1028F000DDE90301884203DD0098405C179901E09F
:10290000179930205A469047049805F10105401C5C
:1029100004900198401E019004D12E205A46179928
:1029200090476D1CBAF10001AAF1010ADDDC05E057
:1029300017F8010B5A46179990476D1CB8F1000122
:10294000A8F10108F4DC5B462146179A0598ABE62E
:102950002D0000002B000000200000002DE9F041B8
:10296000044600251E461746880404D405E039466F
:102970002020B0476D1C641EF9D52846BDE8F081C3
:102980002DE9F041044600251E469046C80301D5B6
:10299000302700E02027880404D505E0414638466A
:1029A000B0476D1C641EF9D52846BDE8F0818168EA
:1029B00041F00801816000BF816801F00801002931
:1029C000FAD1816841F00401816000BF816801F0A3
:1029D00004010029FAD1704730B5012902D002293B
:1029E0001AD10CE0C36A23F47003C362C36A541E95
:1029F0004FF4700505EA04542343C3620DE0836B72
:102A000023F440138363836B541E4FF4401505EA8F
:102A100004542343836300E000BF00BF30BD21B1F5
:102A2000826842F40062826003E0826822F40062FD
:102A30008260704710B504461348204430B1B0F5A9
:102A4000806F0CD0B0F5C05F1BD111E040F20930AF
:102A500001F042F840F2093001F02EF812E040F2A5
:102A60000A3001F039F840F20A3001F025F809E0A7
:102A700040F20F3001F030F840F20F3001F01CF856
:102A800000E000BF00BF10BD00DCFEBF816841F464
:102A9000807181607047816801F0010119B9816816
:102AA00041F001018160704772B101F001031BB177
:102AB000836843F48013836001F0020393B1836859
:102AC00043F4004383600DE001F001031BB1836810
:102AD00023F48013836001F002031BB1836823F4A5
:102AE000004383607047012902D0022910D107E01A
:102AF000836823F46023836083681343836008E062
:102B0000836823F4E043836083681343836000E0B9
:102B100000BF00BF704700000549096821F470211B
:102B2000034A1160114609680143116070470000B3
:102B300004240140F0B51D4606290CDA436B01EB75
:102B400081071F26BE40B34301EB810602FA06F659
:102B50003343436322E00C290EDA036B8E1F06EB2E
:102B600086071F26BE40B3438E1F06EB860602FA79
:102B700006F63343036311E010290FDAC36AA1F1AB
:102B80000C0606EB86071F26BE40B343A1F10C06D8
:102B900006EB860602FA06F63343C3620A2A0CDA0B
:102BA000046902EB42070726BE40B44302EB42062B
:102BB00005FA06F63443046111E0122A0FDAC468FC
:102BC000A2F10A0606EB46070726BE40B443A2F16F
:102BD0000A0606EB460605FA06F63443C460F0BD65
:102BE00001F001021AB1826842F48002826001F0B1
:102BF00002021AB1826842F4001282607047AAB1E0
:102C000001F480731BB1436843F48073436001F4A3
:102C100080631BB1436843F48063436001F00203A7
:102C2000CBB1836843F00203836014E001F4807346
:102C30001BB1436823F48073436001F480631BB1CC
:102C4000436823F48063436001F002031BB183688F
:102C500023F002038360704710B540F2117000F05A
:102C60001BFF40F2026000F017FF0423032218212B
:102C70001D4800F03DFC0823032204211A4800F0FF
:102C800037FC1A4801F07AF94FF41651174801F051
:102C9000D5F80021154801F026FA0021134801F06B
:102CA00012FA0021114801F0FEF900210F4801F04D
:102CB000C9F900210D4801F0BDF904210B4801F0CC
:102CC000FAF90821094801F006FA0022012126201C
:102CD00000F0C2FD40F20531044801F0BBF90348A1
:102CE00001F094F910BD00000008014000440040CC
:102CF00010B517480078012829D116A11B4801F00A
:102D000082F81B49194801F07EF81AA1174801F012
:102D10007AF81D4801881DA0FFF7D0F91DA11348BE
:102D200001F071F81249234801F06DF822A10F4813
:102D300001F069F84FF4FA70FEF742FB80210C486D
:102D4000FDF703FA0020104908800149087010BD02
:102D50001A0000205B44656275675D20474433328A
:102D60002052656365697665643A20000038014049
:102D7000300000205B44656275675D204C656E67BE
:102D800074683A20000000001800002025640D0A35
:102D9000000000005B44656275675D2053656E64EA
:102DA000696E6720746F205553415254312E2E2E78
:102DB0000D0A0000004400405B44656275675D20B9
:102DC00053656E7420746F205553415254310D0A6F
:102DD0000000000010B50E480078012817D10DA1A1
:102DE000144801F010F81449124801F00CF8124888
:102DF00000F036F811A10F4801F005F880210E48C7
:102E0000FDF7A3F90020154908800149087010BD9D
:102E1000200000205B44656275675D205265636534
:102E2000697665642066726F6D2055534152543146
:102E30003A20000000380140B00400205B44656285
:102E400075675D20456E64206F662055534152546E
:102E50003120646174610D0A000000001E00002032
:102E600010B504463BA12046FDF77AF948B93AA1CE
:102E70002046FDF775F920B938A12046FDF770F915
:102E800068B1002036490870012000F0B1FB35A17F
:102E90003E4800F0B8FF3EA000F024F958E041A100
:102EA0002046FDF75DF948B93FA12046FDF758F9E6
:102EB00020B93EA12046FDF753F960B10020284912
:102EC000087000F095FB3AA1304800F09CFF42A04A
:102ED00000F008F93CE045A12046FDF741F948B96A
:102EE00043A12046FDF73CF920B943A12046FDF758
:102EF00037F960B100201A49087000F057FB40A173
:102F0000224800F080FF48A000F0ECF820E04CA13F
:102F10002046FDF725F948B94AA12046FDF720F9DA
:102F200020B94AA12046FDF71BF950B101200C49F8
:102F3000087048A1154800F066FF4FA000F0D2F8D5
:102F400006E052A1114800F05EFF57A000F0CAF859
:102F500010BD0000310000004F4E00006F6E0000F9
:102F6000210000205B416374696F6E5D20436F6DCB
:102F70006D616E64206D617463683A205475726E81
:102F8000204F4E204C45440D0A00000000380140FF
:102F9000416374696F6E3A204C4544204F4E0D0AD0
:102FA00000000000300000004F4646006F666600DB
:102FB0005B416374696F6E5D20436F6D6D616E641C
:102FC000206D617463683A205475726E204F4646D6
:102FD000204C45440D0A0000416374696F6E3A202D
:102FE0004C4544204F46460D0A00000032000000C8
:102FF000544F47474C450000746F67676C6500008D
:103000005B416374696F6E5D20436F6D6D616E64CB
:10301000206D617463683A20544F47474C45204CFB
:1030200045440D0A00000000416374696F6E3A2048
:103030004C454420544F47474C450D0A00000000C2
:1030400033000000626C696E6B000000424C494E18
:103050004B0000005B416374696F6E5D20436F6DD0
:103060006D616E64206D617463683A204C45442044
:10307000424C494E4B0D0A00416374696F6E3A2011
:103080004C454420424C494E4B0D0A005B41637451
:10309000696F6E5D20556E6B6E6F776E20636F6D1E
:1030A0006D616E640D0A00004572726F723A2055B0
:1030B0006E6B6E6F776E20636F6D6D616E640D0A5F
:1030C0000000000010B504462146054800F051FFFD
:1030D00000BF0721024800F09EFF0028F9D010BD74
:1030E0000044004010B5044603E02078FFF7EAFFF3
:1030F000641C20780028F8D100BF0621024800F0A7
:103100008AFF0028F9D010BD004400400448006840
:1031100020B103480068401E014908607047000064
:103120001400002070B505460C462146284600F0E4
:10313000FBF808B900BFFEE704EB8400810005F14D
:103140000800405840F0010104EB8400820005F1C2
:103150000800815070BD70B505460C4621462846D2
:1031600000F0E2F808B900BFFEE704EB840081003C
:1031700005F10800405840F0200104EB8400820073
:1031800005F10800815070BD70B504460D46294612
:10319000204600F0C9F808B900BFFEE705EB85003E
:1031A000810004F10800405820F0010105EB850082
:1031B000820004F108008150002105EB85008200A7
:1031C00004F10800815005EB8500820004F10C0039
:1031D000815005EB8500820004F11000815005EB61
:1031E0008500820004F1140081506068AA000F215C
:1031F00091400843606070BD2DE9F04104460D46E2
:1032000016462946204600F08FF808B900BFFEE7B1
:1032100005EB8500820004F110003168815005EB58
:103220008500820004F11400B1688150308A81B2B7
:1032300005EB8500820004F10C00815005EB850050
:10324000810004F10800475827F47C57F168706842
:10325000084371690843074305EB8500810004F1C9
:1032600008004750307E01280ED105EB8500810013
:1032700004F10800405840F0400105EB8500820051
:1032800004F1080081500DE005EB8500810004F198
:103290000800405820F0400105EB8500820004F151
:1032A00008008150707E01280ED105EB8500810059
:1032B00004F10800405840F0800105EB85008200D1
:1032C00004F1080081500DE005EB8500810004F158
:1032D0000800405820F0800105EB8500820004F1D1
:1032E00008008150B07E70B905EB8500810004F1C3
:1032F0000800405820F0100105EB8500820004F121
:10330000080081500DE005EB8500810004F1080004
:10331000405840F0100105EB8500820004F10800E0
:103320008150BDE8F081000002460120034B9A4223
:1033300002D1042900DD0020704700000004024093
:1033400010B52D4B1B6883432B4C2360231D1B683A
:103350008343241D2360231D1B688343241D236096
:10336000231D1B688343241D236011B101290ED145
:1033700005E0214B1B6803431F4C236008E01E4BF4
:103380001B1D1B6803431C4C241D236000E000BF71
:1033900000BF32B1012A11D0022A1CD0032A27D142
:1033A00027E0154B08331B680343134C0834236094
:1033B000231D1B688343241D23601BE00E4B083331
:1033C0001B6883430C4C08342360231D1B68034394
:1033D000241D23600EE0084B08331B680343064C92
:1033E00008342360231D1B680343241D236001E070
:1033F00000BF00BF00BF10BD0004014001490860CC
:103400007047000014040140014604480068084069
:1034100008B1012070470020FCE7000014040140BF
:1034200070B504460D46E1B2054800F0A2FD00BFAC
:103430000721034800F0EFFD0028F9D0204670BDB9
:103440000038014041617047016170470AB1016174
:1034500000E041617047000010B500228B071C0F8F
:103460000F2303FA04F204290EDA204B9B689343DE
:103470001E4CA36023469B688C07240F00FA04F4BB
:1034800023431A4CA3602FE008290EDA174BDB68A0
:103490009343164CE3602346DB688C07240F00FA45
:1034A00004F42343114CE3601EE00C290EDA0F4BA9
:1034B0001B6993430D4C236123461B698C07240F22
:1034C00000FA04F42343094C23610DE0074B5B69C8
:1034D0009343064C636123465B698C07240F00FA13
:1034E00004F42343014C636110BD0000000001405F
:1034F000F0B5044616460025002201F00F0501F044
:10350000100707B1354300201EE0012787401F4008
:10351000C7B122684FEA800C0F2707FA0CF7BA43AD
:10352000870005FA07F73A43282904D10127874085
:103530001F40676105E0482903D1012787401F40EC
:1035400027612260471CB8B20828DED3082022E099
:10355000012787401F40E7B16268A0F108074FEAE2
:10356000870C0F2707FA0CF7BA43A0F10807BF0032
:1035700005FA07F73A43282904D1012787401F405D
:10358000676105E0482903D1012787401F40276173
:103590006260471CB8B21028DAD3F0BD02469068CA
:1035A000084008B1012070470020FCE710B54FF437
:1035B00000510648FFF7F2FFC0F10100C4B22246F5
:1035C0004FF400510148FFF741FF10BD00100140CA
:1035D00010B540F2046000F05FFA4FF4005303228C
:1035E00010210248FFF784FF10BD000000100140C9
:1035F00010B504462CB14FF400510548FFF722FFE7
:1036000004E04FF400510248FFF71EFF10BD000018
:10361000001001401CB5FFF7DBFFFDF7B3FE00F023
:1036200055FCFFF719FB00F0CDFAFEF777FAFDF72E
:1036300047FFFEF71BF8FDF74FFBFDF721FDFDF7F8
:1036400083F9082342A201210846FEF79DFB0823C7
:1036500041A211210120FEF797FBFEF71DFC40A0BF
:10366000FEF72CFDFDF738FB18B140A0FEF726FD54
:1036700002E043A0FEF722FDFDF702FD18B145A0D0
:10368000FEF71CFD02E04CA0FEF718FD5EE0FDF722
:103690000DFF52490988084400B250490880FEF7DE
:1036A00045F94F4908804F494F48FDF755FB4F49B1
:1036B0004F48FDF79FFD0820052300904748B0F9CB
:1036C000002001212820FEF739FB08200523009067
:1036D0004348028811213220FEF730FBFEF7DCFB65
:1036E000FDF742FF0446214642A0FEF7E7FCFDF746
:1036F00025FF0446214645A0FEF7E0FC3948006856
:10370000FCF7C0FF04460D4637480068FCF7BAFFD7
:10371000064632460B4642A0CDE90045FEF7CEFCF8
:1037200032480068FCF7AEFF04460D46304800689A
:10373000FCF7A8FF064632460B4640A0CDE90045FF
:10374000FEF7BCFCFFF7D4FAFFF744FB9FE700004D
:103750004E756D733A0000004C696768743A00005A
:1037600068656C6C6F20776F726C640041485432EE
:103770003020B3F5CABCBBAFB3C9B9A6210D0A004E
:10378000414854323020B3F5CABCBBAFCAA7B0DC45
:10379000210D0A00424D5032383020B3F5CABCBB6F
:1037A000AFB3C9B9A62C20B6C1B5BDD5FDC8B7B554
:1037B000C44944210D0A0000424D5032383020B334
:1037C000F5CABCBBAFCAA7B0DC2C20D5D2B2BBB502
:1037D000BDC9E8B1B8210D0A0000000000000020BA
:1037E0000200002008000020040000200C0000203F
:1037F00010000020736F696C5F68756D696469748F
:1038000079203D20256425250D0A00007261696E2E
:103810005F73697A65203D2025640D0A0000000071
:1038200074656D7030203D20252E32662068756DE0
:1038300069203D20252E32660D0A000074656D70EA
:1038400031203D20252E3266207072657373203D35
:1038500020252E32660D0A002DE9F04103460D4663
:10386000164600240027A0462448006800F4E060C3
:10387000B0F5A06F15D006DCB0F5407F18D0B0F5DC
:10388000806F19D110E0B0F5C06F06D0B0F5E06FD1
:1038900012D100274FF0040815E001274FF003086C
:1038A00011E00227B8460EE003274FF001080AE0B6
:1038B00004274FF0000806E04FF4A06000F022F863
:1038C0000227B84600BF00BFC7F1040005FA00F4A4
:1038D000C8F104010F20C8403040044324010848C7
:1038E000C45403F01F01012088405911890001F1DF
:1038F000E021C1F80001BDE8F08100000CED00E01E
:1039000000E400E002490143024A116070470000F0
:103910000000FA050CED00E0024A0A400243024BA7
:103920001A60704780FFFF1F08ED00E00F4A5168E2
:103930000F4A1140082814D2DFE800F004050607FA
:10394000130A130B00BF00BF00BF41EA803109E03A
:1039500000BF20F004004FF0805242EA8032114351
:1039600000E000BF00BF014A5160704700100240F4
:10397000FF3FFFEF2DE9F04F8BB007460020099085
:103980003EA090E8004CC068CDE905BECDF810A07F
:1039900007900FF2EC0ADAE9000ACDE9020A0FF209
:1039A000E00ADAE9000ACDE9000A38484068C0F3C5
:1039B00081000A900A9820B1012804D0022829D158
:1039C00003E0334928E0324926E03048406800F4FB
:1039D0008038B8F5803F09D12D4C2C48406800F460
:1039E0000039B9F5003F02D1641000E0294C2748A6
:1039F0004068C0F383422548406800F0006008B189
:103A000042F010020F2A01D2921C00E0521C04FB6B
:103A100002F101E01E4900BF00BF1C484068C0F32E
:103A2000031504A8465D21FA06F318484068C0F360
:103A3000022502A8465D23FA06FC14484068C0F33C
:103A4000C2251DF8056023FA06F0089037B1012F52
:103A500006D0022F06D0032F0AD106E0099108E014
:103A6000099306E0CDF824C003E00898099000E02F
:103A700000BF00BF09980BB0BDE8F08F0000000048
:103A800000000000010203040607080900100240BC
:103A900000127A0000093D00064A02EB9011096805
:103AA00000F01F0301229A401143024B03EB9012D6
:103AB0001160704700100240064A02EB901109683D
:103AC00000F01F0301229A409143024B03EB901236
:103AD0001160704700100240064A02EB901109681D
:103AE00000F01F0301229A401143024B03EB901296
:103AF0001160704700100240002000212C4A12681B
:103B000042F480322A4B1A6000BF401C284A1268D7
:103B100002F4003119B94FF6FF729042F5D1244AF0
:103B2000126802F400320AB900BFFEE7204A526868
:103B30001F4B5A601A4652685A601A46526842F43D
:103B400080625A601A46526822F440325A601A461D
:103B5000526842F440325A601A465268154B1A4075
:103B6000134B5A601A465268134B1A43104B5A6053
:103B70001A46126842F080721A6000BF0C4A12683E
:103B800002F00072002AF9D0094A526822F00302BA
:103B9000074B5A601A46526842F002025A6000BF50
:103BA000034A526802F00802002AF9D07047000068
:103BB00000100240FFFFC3F70000280810B5FFF710
:103BC0009BFF10BD1FB540F20170FFF765FF00229B
:103BD00002211D20FFF740FE0E4800F01DF842F6BE
:103BE0002F20ADF800000020ADF80200ADF8040071
:103BF00041F2873002900020ADF80C00694605487C
:103C000000F07EF80121034800F0EAF8014800F0D6
:103C100071F81FBD0004004010B504463349601A16
:103C20008C4244D00CDCB4F1804F1CD0304820448E
:103C300010B3B0F5806F28D0B0F5006F52D12DE0F1
:103C4000B0F5806F3CD0B0F58E3F03D0B0F5923F19
:103C500048D13EE040F20B30FFF73EFF40F20B3020
:103C6000FFF72AFF3FE04FF48060FFF735FF4FF486
:103C70008060FFF721FF36E040F20140FFF72CFFA4
:103C800040F20140FFF718FF2DE040F20240FFF73D
:103C900023FF40F20240FFF70FFF24E040F2034011
:103CA000FFF71AFF40F20340FFF706FF1BE040F268
:103CB0000440FFF711FF40F20440FFF7FDFE12E061
:103CC00040F20540FFF708FF40F20540FFF7F4FE21
:103CD00009E040F20D30FFF7FFFE40F20D30FFF734
:103CE000EBFE00E000BF00BF10BD00000010004070
:103CF00000FCFFBF016841F0010101607047000056
:103D00000A888262294A904220D0B0F1804F1DD0AB
:103D1000274A90421AD0274A904217D0264A90420A
:103D200014D0264A904211D0254A90420ED0254AFE
:103D300090420BD0244A904208D0244A904205D0A9
:103D4000234A904202D0234A90420FD1026822F0C7
:103D50007002026002688B7803F060031A4302600D
:103D600002680B7903F010031A4302608A68C2628A
:103D7000194A90420CD0194A904209D0026822F4A4
:103D80004072026002688B8903F440731A43026038
:103D9000064A904202D0094A904201D18A7B0263CE
:103DA000426942F00102426170470000002C01406C
:103DB0000004004000080040000C004000340140B6
:103DC000004C0140005001400054014000180040E8
:103DD000001C004000200040001000400014004083
:103DE000C2680A43C2607047CA4302617047024614
:103DF000D06800EA01031069084010B10BB101203E
:103E000070470020FCE770B505460C460BE02178B2
:103E1000284600F0AEF800BF0721284600F0FBF866
:103E20000028F9D0641C20780028F0D100BF0621BA
:103E3000284600F0F0F80028F9D070BD2DE9F047D1
:103E400004460D460027B846B94600261D49601AAB
:103E50008C421CD006DC1C48204470B1B0F5806F49
:103E60001FD10FE0B0F5806F16D0B0F56C4F18D1B0
:103E70000320FFF77FFD074614E00220FFF77AFDDD
:103E800007460FE00220FFF775FD07460AE0022013
:103E9000FFF770FD074605E00220FFF76BFD0746C0
:103EA00000E000BF00BF07EB5500B0FBF5F64FF692
:103EB000F07006EA000806F00F0948EA0900A06061
:103EC000BDE8F087004C004000BCFFBF10B540F2D9
:103ED0000E60FFF7E1FD40F20260FFF7DDFD4FF4F9
:103EE0000073032218211E48FFF702FB4FF4806382
:103EF000032204211A48FFF7FBFA1A4800F03EF8A3
:103F00004FF4E1311748FFF799FF0021154800F001
:103F1000EAF80021134800F0D6F80021114800F01B
:103F2000C2F800210F4800F08DF800210D4800F084
:103F300081F804210B4800F0BEF80821094800F080
:103F4000CAF8002211462520FFF786FC40F2053111
:103F5000044800F07FF8034800F058F810BD000056
:103F6000000801400038014001464868C0F30800DD
:103F70007047C1F3080242607047000010B5044664
:103F80002049601A8C4228D006DC1F48204490B19A
:103F9000B0F5806F33D117E0B0F5806F26D0B0F563
:103FA0006C4F2CD140F20E30FFF796FD40F20E30F0
:103FB000FFF782FD24E040F21140FFF78DFD40F253
:103FC0001140FFF779FD1BE040F21240FFF784FD3E
:103FD00040F21240FFF770FD12E040F21340FFF78D
:103FE0007BFD40F21340FFF767FD09E040F214400B
:103FF000FFF772FD40F21440FFF75EFD00E000BFE6
:1040000000BF10BD004C004000BCFFBFC16841F4C0
:104010000051C160704710B5024602EB9110006874
:1040200001F01F040123A340184008B1012010BD76
:104030000020FCE70A460021416921F40071114388
:10404000416170470A460021416921F480711143A2
:104050004161704710B5C1F38912825801F01F0405
:104060000123A3401A43C1F38913C25010BD70B598
:10407000024600230024C1F38910105801F01F06E6
:104080000125B54000EA050302EB91500068C1F339
:1040900004460125B54000EA050414B10BB1012026
:1040A00070BD0020FCE7C26822F4C062C260C26832
:1040B0000A43C26070470A460021C16821F004012A
:1040C0001143C1607047026922F4405202610269E3
:1040D0000A43026170470A460021C16821F00801C5
:1040E0001143C1607047C26822F48052C260C26846
:1040F0000A43C2607047000000000000000000009A
:10410000000000000000000000F8000000000000B7
:1041100000333000000000160E00160E00000000F4
:1041200000000000000040C07840C0784000043F1C
:1041300004043F040400007088FC083000000018EC
:1041400020FF211E0000F008F000E0180000002110
:104150001C031E211E0000F00888700000001E21B4
:10416000232419272110000000160E000000000073
:10417000000000000000000000E018040200000041
:1041800000071820400000020418E0000000004072
:10419000201807000000404080F0804040000202EC
:1041A000010F01020200000000F000000000010108
:1041B000011F01010100000000000000000000B02C
:1041C000700000000000000000000000000000017E
:1041D00001010101010100000000000000000030A9
:1041E0003000000000000000000080601804006043
:1041F00018060100000000E010080810E000000FA1
:10420000102020100F00001010F800000000002007
:10421000203F20200000007008080888700000304F
:1042200028242221300000300888884830000018F7
:10423000202020110E000000C02010F80000000710
:104240000424243F240000F8088888080800001986
:10425000212020110E0000E0108888180000000FB7
:10426000112020110E0000380808C838080000008E
:10427000003F000000000070880808887000001CE3
:10428000222121221C0000E010080810E00000009C
:10429000312222110F00000000C0C0000000000009
:1042A000003030000000000000C0C000000000002E
:1042B00080B0700000000000804020100800000165
:1042C00002040810200040404040404040000404E8
:1042D00004040404040000081020408000000020B2
:1042E000100804020100007048080808F0000000EF
:1042F000003036010000C030C828E810E000071880
:10430000272423140B000000C038E0000000203CEC
:1043100023020227382008F8888888700000203F90
:10432000202020110E00C0300808080838000718A7
:1043300020202010080008F808080810E000203F9E
:10434000202020100F0008F88888E8081000203F7F
:1043500020202320180008F88888E8081000203F53
:10436000200003000000C0300808083800000718CB
:104370002020221E020008F808000008F808203F4C
:10438000210101213F20000808F808080000002052
:10439000203F2020000000000808F8080800C08026
:1043A00080807F00000008F888C028180800203F9F
:1043B00020012638200008F8080000000000203FF7
:1043C00020202020300008F8F800F8F80800203FEE
:1043D000003F003F200008F830C00008F808203FE8
:1043E000200007183F00E01008080810E0000F1038
:1043F000202020100F0008F808080808F000203FCF
:10440000210101010000E01008080810E0000F1869
:10441000242438504F0008F8888888887000203F8E
:104420002000030C3020007088080808380000388D
:10443000202121221C00180808F808081800000094
:10444000203F2000000008F808000008F808001FBE
:10445000202020201F000878880000C838080000AD
:1044600007380E010000F80800F80008F800033CC7
:104470000700073C0300081868808068180820308F
:104480002C03032C30200838C800C838080000006E
:10449000203F2000000010080808C8380800203815
:1044A000262120201800000000FE02020200000069
:1044B000007F40404000000C30C0000000000000C1
:1044C00000010638C00000020202FE0000000040A9
:1044D00040407F0000000020100804081020000069
:1044E00000000000000000000000000000008080CC
:1044F00080808080808000020408000000000000AE
:104500000000000000000000808080800000001992
:10451000242222223F2008F8008080000000003F73
:10452000112020110E000000008080800000000E8D
:10453000112020201100000000808088F800000E6B
:10454000112020103F200000808080800000001F8C
:10455000222222221300008080F088888818002000
:10456000203F202000000000808080808000006BC1
:1045700094949493600008F8008080800000203FAD
:10458000210000203F2000809898000000000020BB
:10459000203F20200000000000809898000000C00C
:1045A0008080807F000008F8000080808000203F2D
:1045B00024022D302000000808F800000000002030
:1045C000203F202000008080808080808000203F6D
:1045D00020003F20003F00808000808000000020FD
:1045E0003F2100203F200000808080800000001FCD
:1045F000202020201F00808000808000000080FF9D
:10460000A12020110E000000008080808000000E9C
:10461000112020A0FF8080808000808080002020EA
:104620003F21200001000000808080808000003356
:10463000242424241900008080E0808000000000F1
:10464000001F202000008080000000808000001FEC
:10465000202020103F20808080000080808000018A
:104660000E300806010080800080008080800F30BE
:104670000C030C300F000080800080808000002040
:10468000312E0E312000808080000080808080816B
:104690008E701806010000808080808080000021DC
:1046A000302C2221300000000000807C020200003B
:1046B0000000003F404000000000FF00000000003C
:1046C0000000FF0000000002027C800000000040AB
:1046D000403F00000000008040408000008000005B
:1046E0000000000101000000000000000000002F99
:1046F000000000000700070000147F147F1400244E
:104700002A7F2A120023130864620036495522507A
:1047100000000007000000001C22410000004122B0
:104720001C000014083E08140008083E0808000099
:1047300000A0600000080808080800006060000091
:10474000002010080402003E5149453E0000427F0F
:104750004000004261514946002141454B3100185B
:1047600014127F10002745454539003C4A4949301D
:1047700000017109050300364949493600064949D7
:10478000291E0000363600000000563600000008E2
:1047900014224100001414141414000041221408BF
:1047A000000201510906003E4955592E007C1211A4
:1047B000127C007F49494936003E41414122007F39
:1047C0004141221C007F49494941007F09090901F3
:1047D000003E4149497A007F0808087F0000417F78
:1047E0004100002040413F01007F08142241007F2A
:1047F00040404040007F020C027F007F0408107F91
:10480000003E4141413E007F09090906003E4151F9
:10481000215E007F091929460046494949310001B6
:10482000017F0101003F4040403F001F2040201F0A
:10483000003F4038403F00631408146300070870CD
:10484000080700615149454300007F4141000002D3
:1048500004081020000041417F000004020102040E
:104860000040404040400000010204000020545439
:104870005478007F48444438003844444420003889
:104880004444487F00385454541800087E090102FB
:104890000018A4A4A47C007F080404780000447DD0
:1048A0004000004080847D00007F1028440000000C
:1048B000417F4000007C04180478007C08040478E0
:1048C00000384444443800FC2424241800182424CC
:1048D00018FC007C080404080048545454200004C8
:1048E0003F444020003C4040207C001C2040201CD5
:1048F000003C4030403C004428102844001CA0A04C
:10490000A07C004464544C440000087F4100000037
:10491000007F00000000417F080000080408100824
:10492000A3AC000000000000000000000000000038
:1049300000000000005838000000000000000000E7
:10494000000000A1A3000000000000000000000023
:1049500000000000000000001824241800000000DF
:10496000000000000000C4E300008060F807402061
:10497000180F08C80808281800010000FF00100CD4
:104980000340807F0001061800BAC3001010F01F1A
:1049900010F000808282E2928A8680004022150810
:1049A0001661000040807F0000000000CAC00020A7
:1049B0002020FE2020FF202020FF2020202000009B
:1049C00000007F404047444444474040400000BD11
:1049D000E700000000FE929292FE929292FE00008A
:1049E000000008080484621E010001FE020404089D
:1049F0000800000000FF010101310909090989715E
:104A000001010101FFFF808080808080968180808D
:104A100080808080FFFF01818181FD8991A1C1FD9E
:104A200081818101FFFF808080809F888482819FB7
:104A300080808080FF000000584A000800000020AD
:104A400030000000DC200008884A00083000002008
:104A500018250000EC200008000000000000000005
:104A60000000000000000000000000000000000046
:104A70000000000000000000000000000000000036
:084A800000000000000000002E
:0400000508000105E9
:00000001FF
