:020000040800F2
:100000001024002019010008110800084D04000800
:100010000D08000899020008E50D00080000000026
:10002000000000000000000000000000550D000866
:100030009D02000800000000530D0008570D000845
:1000400033010008330100083301000833010008C0
:100050003301000833010008510300088D03000834
:1000600033010008330100083301000833010008A0
:100070003301000833010008330100083301000890
:100080003301000833010008330100083301000880
:100090003301000833010008330100083301000870
:1000A0003301000833010008330100083301000860
:1000B0003301000833010008330100083301000850
:1000C0003301000833010008330100083301000840
:1000D0003301000833010008330100083301000830
:1000E000330100083301000833010008000000005C
:1000F0000000000000000000000000000000000000
:1001000033010008DFF80CD000F0B4F800480047D5
:100110005D1000081024002006488047064800476C
:10012000FEE7FEE7FEE7FEE7FEE7FEE7FEE7FEE7A7
:10013000FEE7FEE7610D00080501000810B500228A
:1001400000E0521C835C8C5CA34201D1002BF8D1EF
:10015000D8B2E1B2401A10BD30B480EA010202F018
:10016000004530F0004221F0004013D090B1C30DA3
:10017000D40DC2F31601C0F31600E41A41F40001D5
:1001800040F400027D34914201D3641C00E0490038
:10019000002C02DA30BC002070474FF4000000232E
:1001A000914201D3891A034340084FEA4101F7D134
:1001B00051B1914202D14FF0004105E002D24FF01F
:1001C000010101E06FF0010103EBC450284430BC91
:1001D00000F019B896230022114600F01DB820F057
:1001E0000040C10DC0F3160040F400007F2901DA81
:1001F00000207047962903DCC1F19601C840704782
:100200009639884070470029A8BF7047401C4900B4
:1002100008BF20F00100704710B4B0FA80FC00FA6B
:100220000CF050EA010404BF10BC704749B1CCF196
:10023000200421FA04F411FA0CF118BF0121214322
:100240000843A3EB0C01CB1D4FEA00614FEA1020DD
:1002500042BF002010BC704700EBC350104400297F
:10026000A4BF10BC7047401C490008BF20F001002B
:1002700010BC7047064C074D06E0E06840F00103F3
:1002800094E8070098471034AC42F6D3FFF73EFFDE
:10029000901F0008B01F000800BFFEE77047000075
:1002A0000C48006820F080700A4908600846006821
:1002B00040F0807008600848006820F0010006499E
:1002C00008600846006840F00100086000204860AF
:1002D00070470000FCED00E0001000E070B504463F
:1002E000002504E04FF47A7000F004F86D1CA5427C
:1002F000F8D370BD2DE9F041064613484468002745
:10030000012000F06BFF07461048B7FBF0F000FB40
:1003100006F50D4840682844A0420CD200BF0A48A8
:100320004068A042FBD800BF074841686042281AD5
:100330008142F9D305E000BF03484068001BA84292
:10034000FAD3BDE8F0810000001000E040420F0049
:1003500010B5012000F0C8FD012812D10121094883
:1003600000F074FE50B90221064800F06FFE28B973
:1003700005480088401E00B203490880012000F0B3
:10038000ADFD10BD000C01400800002010B502209A
:1003900000F0AAFD012812D10221094800F056FE02
:1003A00050B90121064800F051FE28B905480088DF
:1003B000401C00B203490880022000F08FFD10BDF0
:1003C000000C0140080000200349B1F900000021A1
:1003D000014A1180704700000800002010B540F26B
:1003E000036000F08DFF4FF4C06000F089FF03232D
:1003F0001A464821144800F0D3FD0021012000F0E6
:1004000083FD0121084600F07FFD012200211046F6
:1004100000F006FD01220021022000F001FD012074
:1004200000F05CFD022000F059FD4FF4A06000F0E8
:10043000C1FE01221146062000F066FE02220121C3
:10044000072000F061FE10BD000C014000BFFEE778
:1004500010B540F2036000F053FFC02303221421C3
:10046000054800F09DFD4021034800F04BFD802130
:10047000014800F047FD10BD000C014010B5FFF72A
:10048000E7FF10BD10B540F2026000F039FF032312
:100490001A461421054800F083FD0121034800F0AD
:1004A00031FD0221014800F02DFD10BD0008014082
:1004B00010B5FFF7E7FF10BD70B500240221154805
:1004C00000F020FD002521E06006040E0121114806
:1004D00000F018FD00BF0420FFF70CFF00BF022151
:1004E0000C4800F0B3FD08B144F0010400BF042043
:1004F000FFF700FF00BF0121064800F001FD00BF2B
:100500000420FFF7F7FE00BF681CC5B2082DDBDB37
:10051000204670BD0008014010B502210F4800F0D0
:10052000EFFC00BF0420FFF7E5FE00BF01210B48F0
:1005300000F0E8FC00BF0420FFF7DCFE00BF012153
:10054000064800F0DDFC00BF0420FFF7D3FE00BF2B
:100550000221024800F0D6FC10BD00000008014056
:1005600070B50446002526E004F0800020B1022189
:10057000124800F0C7FC03E00221104800F0C0FC64
:100580006006040E00BF0420FFF7B4FE00BF012187
:100590000A4800F0B7FC00BF0420FFF7ABFE00BF25
:1005A0000121064800F0ACFC00BF0420FFF7A2FECA
:1005B00000BF681CC5B2082DD6DB70BD0008014025
:1005C00010B502210D4800F09DFC00BF0420FFF78C
:1005D00091FE00BF0121094800F094FC00BF0420F7
:1005E000FFF788FE00BF0121044800F089FC00BF2E
:1005F0000420FFF77FFE00BF10BD0000000801408F
:1006000010B502210F4800F07DFC01210D4800F0DB
:1006100079FC00BF0420FFF76DFE00BF02210948EE
:1006200000F06EFC00BF0420FFF764FE00BF012154
:10063000044800F065FC00BF0420FFF75BFE00BF2C
:1006400010BD00000008014010B502210D4800F067
:1006500057FC00BF0420FFF74DFE00BF01210948F1
:1006600000F050FC00BF0420FFF744FE00BF022151
:10067000044800F047FC00BF0420FFF73BFE00BF2A
:1006800010BD00000008014010B5002402211548EB
:1006900000F038FC00BF0420FFF72CFE00BF012152
:1006A000104800F02FFC00BF0420FFF723FE00BF1E
:1006B00007E0601CC4B2FA2C03D9FFF7C5FF012084
:1006C00010BD0221074800F0C1FC0028F1D1012132
:1006D000044800F015FC00BF0420FFF70BFE00BF2C
:1006E0000020EDE70008014010B580210F4800F020
:1006F00009FC40210D4800F005FC00BF0420FFF775
:10070000F9FD00BF8021094800F0FAFB00BF04207A
:10071000FFF7F0FD00BF4021044800F0F1FB00BFEF
:100720000420FFF7E7FD00BF10BD0000000C0140F2
:1007300010B580210D4800F0E3FB00BF0420FFF757
:10074000D9FD00BF4021094800F0DCFB00BF0420B8
:10075000FFF7D0FD00BF8021044800F0D3FB00BFAD
:100760000420FFF7C7FD00BF10BD0000000C0140D2
:10077000F8B5002000900024FFF742FF4620FFF765
:10078000EFFEFFF781FF18B1FFF75EFF0020F8BD15
:100790001020FFF7E5FEFFF777FF18B1FFF754FFD2
:1007A0000020F4E7FFF750FFB420FFF797FDFFF7B5
:1007B00027FF4720FFF7D4FEFFF766FF18B1FFF7CA
:1007C00043FF0020E3E7FFF777FE8DF80000FFF717
:1007D000A3FEFFF771FE8DF80100FFF7F1FEFFF7B2
:1007E00033FF9DF801009DF8001040EA01242046E7
:1007F000FFF7F0FC06460449FFF7AEFC0546FFF79D
:10080000EEFC84B22046C2E79A99993F00BFFEE70A
:100810007047000000200CE0002106E00022064B9B
:1008200003EBC0135A544A1CD1B28029F6DB421C98
:10083000D0B20828F0DB70470C0000202DE9F0430F
:1008400004460D4616461F46284638E0224631E04B
:10085000002A2DDB7F2A2BDC002829DB3F2827DC20
:100860004FEAE07C00EB5C7C4FEAEC0CDFF8588050
:1008700008EBCC1C1CF802C003464FEAE07800EB02
:1008800058784FEAE808A0EBC8094FF0010808FAC9
:1008900009F82CEA080C01464FEAE07800EB58789A
:1008A0004FEAE808DFF8209009EBC81808F802C002
:1008B000511C0AB2A1199142CADC411C08B2E919C3
:1008C0008142C3DCBDE8F0830C00002070B5054612
:1008D00000242EE04021214800F012FB00BF02203E
:1008E000FFF708FD00BF80202041284020B1802173
:1008F0001A4800F007FB03E08021184800F000FBD5
:1009000000BF0220FFF7F6FC00BF4021134800F0B3
:10091000F9FA00BF0220FFF7EDFC00BF40210F48AD
:1009200000F0EEFA00BF0220FFF7E4FC00BF601CFD
:10093000C4B2082CCEDB4021084800F0E3FA00BF27
:100940000220FFF7D7FC00BF4021044800F0D8FA8E
:1009500000BF0220FFF7CEFC00BF70BD000C0140BD
:1009600010B5FFF78BFDAE2000F0CCF9D52000F0DC
:10097000C9F9802000F0C6F9A82000F0C3F93F2093
:1009800000F0C0F9D32000F0BDF9002000F0BAF962
:10099000402000F0B7F9A12000F0B4F9C82000F021
:1009A000B1F9DA2000F0AEF9122000F0ABF98120A5
:1009B00000F0A8F9CF2000F0A5F9D92000F0A2F9A5
:1009C000F12000F09FF9DB2000F09CF9302000F0CE
:1009D00099F9A42000F096F9A62000F093F98D2053
:1009E00000F090F9142000F08DF9AF2000F08AF9A2
:1009F000FFF710FF00F072F910BD10B5024601209C
:100A000000E050430B1EA1F10101FAD110BD70B5F9
:100A100005460C4645F0B00000F074F9102141EA9B
:100A2000141000F06FF904F00F0000F06BF970BDC6
:100A3000F8B506460F4614461D46082D0CD1A4F104
:100A400020000E4901EB00101023082239460090C7
:100A5000304600F017F80FE0062D0DD1A4F120006C
:100A600000EB4000064901EB40000823062239460E
:100A70000090304600F006F8F8BD00004E16000861
:100A80003E1C00082DE9FF4F80460E469146DDF8DA
:100A900034B0002500244A4631464046039BFFF708
:100AA000CDFE00BF5EE0002558E008EB0500002801
:100AB00052DB08EB05007F284EDC3046F11706EBD1
:100AC0005171C9100FB2F11706EB5171C910A6EBA5
:100AD000C10A002E05DA781E07B20AF108000FFAE3
:100AE00080FA3819002817DB3819072814DC381960
:100AF000224901EBC01008EB0501405C04FB0951E1
:100B00001BF8011001FA0AF1084339191B4A02EBDC
:100B1000C11108EB050288543819401C00281BDB62
:100B20003819401C072817DC3819401C134901EB01
:100B3000C01008EB0501405C04FB09511BF80110D3
:100B4000CAF10802114108433919491C0B4A02EB4A
:100B5000C11108EB05028854681CC5B24D45A4DBE1
:100B6000601CC4B20399481EC11700EB51710122E9
:100B700002EBE101A14296DCBDE8FF8F0C000020F2
:100B80002DE9F0470646894617461D46DDF82080C8
:100B9000002417E0281B411E0A20FFF72EFFB7FB99
:100BA000F0F00A21B0FBF1F201FB120000F1300A73
:100BB00004FB086108B2434652464946FFF738FF36
:100BC000601CC4B2AC42E5DBBDE8F0872DE9FE4F06
:100BD00007468A46144698460025AB46002672E032
:100BE000605D00F0800058B94FF0010B2846691C89
:100BF0008DB2205C8DF8040000208DF8050013E014
:100C00004FF0020B2846691C8DB2205C8DF8040061
:100C1000605D00B95AE02846691C8DB2205C8DF8F1
:100C2000050000208DF80600BBF1010F0BD19DF8E7
:100C30000420B91908B243465146FFF7F9FE06EB06
:100C4000080086B23FE04FF000090EE0C9EBC90191
:100C500001EB81011F4A881801A9FFF76FFA00B95B
:100C60000EE009F101001FFA80F9C9EBC90101EB9F
:100C70008101184A881818A1FFF760FA0028E5D109
:100C800000BFB8F1080F12D1C9EBC90000EB80001A
:100C900010490844C01CB919009008B210231A4624
:100CA0005146FFF7EFFE06F1100086B20BE0B8F1F7
:100CB000060F08D1B91908B206233F225146FFF7A3
:100CC000B7FEB01D86B2605D002889D100BFBDE8C7
:100CD000FE8F0000781E00080000000010B5002400
:100CE0000BE000212046FFF792FE054901EBC410FE
:100CF000802100F017F8601CC4B2082CF1DB10BD95
:100D00000C00002010B50446FFF7EEFC7820FFF73A
:100D1000DDFD0020FFF7DAFD2046FFF7D7FDFFF7E6
:100D200007FD10BD70B505460E46FFF7DDFC7820C7
:100D3000FFF7CCFD4020FFF7C9FD002404E0285D4B
:100D4000FFF7C4FD601CC4B2B442F8DBFFF7F0FC4F
:100D500070BD7047704710B500F056F810BD000028
:100D600010B51C48006840F001001A4908600846A8
:100D7000406820F0030048600846006816490840B3
:100D80001449086008464068144908401149486001
:100D900008460068104908400E4908600846006887
:100DA00020F480200860084640680D490840094941
:100DB00048600846006808490840064908604FF442
:100DC0001F00886000F02EFB00214FF0006000F053
:100DD000FBF910BD00100240FFFFF6FE0C00FFE81B
:100DE000FFFF00F700BFFEE702E008C8121F08C1BE
:100DF000002AFAD170477047002001E001C1121F9C
:100E0000002AFBD1704700000448006820B1034865
:100E10000068401E0149086070470000040000207F
:100E200010B52D4B1B6883432B4C2360231D1B687F
:100E30008343241D2360231D1B688343241D2360DB
:100E4000231D1B688343241D236011B101290ED18A
:100E500005E0214B1B6803431F4C236008E01E4B39
:100E60001B1D1B6803431C4C241D236000E000BFB6
:100E700000BF32B1012A11D0022A1CD0032A27D187
:100E800027E0154B08331B680343134C08342360D9
:100E9000231D1B688343241D23601BE00E4B083376
:100EA0001B6883430C4C08342360231D1B680343D9
:100EB000241D23600EE0084B08331B680343064CD7
:100EC00008342360231D1B680343241D236001E0B5
:100ED00000BF00BF00BF10BD000401400149086011
:100EE00070470000140401400146044800680840AF
:100EF00008B1012070470020FCE700001404014005
:100F0000416170470161704710B500228B071C0FCB
:100F10000F2303FA04F204290EDA204B9B68934353
:100F20001E4CA36023469B688C07240F00FA04F430
:100F300023431A4CA3602FE008290EDA174BDB6815
:100F40009343164CE3602346DB688C07240F00FABA
:100F500004F42343114CE3601EE00C290EDA0F4B1E
:100F60001B6993430D4C236123461B698C07240F97
:100F700000FA04F42343094C23610DE0074B5B693D
:100F80009343064C636123465B698C07240F00FA88
:100F900004F42343014C636110BD000000000140D4
:100FA000F0B5044616460025002201F00F0501F0B9
:100FB000100707B1354300201EE0012787401F407E
:100FC000C7B122684FEA800C0F2707FA0CF7BA4323
:100FD000870005FA07F73A43282904D101278740FB
:100FE0001F40676105E0482903D1012787401F4062
:100FF00027612260471CB8B20828DED3082022E00F
:10100000012787401F40E7B16268A0F108074FEA57
:10101000870C0F2707FA0CF7BA43A0F10807BF00A7
:1010200005FA07F73A43282904D1012787401F40D2
:10103000676105E0482903D1012787401F402761E8
:101040006260471CB8B21028DAD3F0BD024690683F
:10105000084008B1012070470020FCE708B540F2C5
:10106000046000F04DF94FF40053032210211F4893
:10107000FFF796FFFFF714F900F020FAFFF770FC76
:10108000FFF7ACF9FFF714FA082319A2012108466B
:10109000FFF79CFD082318A211210120FFF796FD00
:1010A000FFF71CFE20E0FFF78FF915490988084477
:1010B00000B213490880FFF75BFB12490880082043
:1010C000052300900E48B0F9002001212820FFF7E9
:1010D00057FD0820052300900A480288112132207C
:1010E000FFF74EFDFFF7FAFDDDE7000000100140BD
:1010F0004E756D733A0000004C696768743A0000E1
:1011000000000020020000202DE9F04103460D46BA
:10111000164600240027A0462448006800F4E0603A
:10112000B0F5A06F15D006DCB0F5407F18D0B0F553
:10113000806F19D110E0B0F5C06F06D0B0F5E06F48
:1011400012D100274FF0040815E001274FF00308E3
:1011500011E00227B8460EE003274FF001080AE02D
:1011600004274FF0000806E04FF4A06000F022F8DA
:101170000227B84600BF00BFC7F1040005FA00F41B
:10118000C8F104010F20C84030400443240108483E
:10119000C45403F01F01012088405911890001F156
:1011A000E021C1F80001BDE8F08100000CED00E095
:1011B00000E400E002490143024A11607047000068
:1011C0000000FA050CED00E0024A0A400243024B1F
:1011D0001A60704780FFFF1F08ED00E02DE9F04F17
:1011E0008BB00746002009903EA090E8004CC068F4
:1011F000CDE905BECDF810A007900FF2EC0ADAE9B0
:10120000000ACDE9020A0FF2E00ADAE9000ACDE9A4
:10121000000A38484068C0F381000A900A9820B15B
:10122000012804D0022829D103E0334928E03249BB
:1012300026E03048406800F48038B8F5803F09D196
:101240002D4C2C48406800F40039B9F5003F02D11C
:10125000641000E0294C27484068C0F383422548C9
:10126000406800F0006008B142F010020F2A01D27D
:10127000921C00E0521C04FB02F101E01E4900BF79
:1012800000BF1C484068C0F3031504A8465D21FA5E
:1012900006F318484068C0F3022502A8465D23FA09
:1012A00006FC14484068C0F3C2251DF8056023FA07
:1012B00006F0089037B1012F06D0022F06D0032F79
:1012C0000AD106E0099108E0099306E0CDF824C0B0
:1012D00003E00898099000E000BF00BF09980BB038
:1012E000BDE8F08F000000000000000001020304D0
:1012F000060708090010024000127A0000093D00AC
:10130000064A02EB9011096800F01F0301229A407F
:101310001143024B03EB9012116070470010024022
:10132000064A02EB9011096800F01F0301229A405F
:101330009143024B03EB9012116070470010024082
:10134000064A02EB9011096800F01F0301229A403F
:101350001143024B03EB90121160704700100240E2
:10136000002000212C4A126842F480322A4B1A6075
:1013700000BF401C284A126802F4003119B94FF628
:10138000FF729042F5D1244A126802F400320AB981
:1013900000BFFEE7204A52681F4B5A601A46526847
:1013A0005A601A46526842F480625A601A4652687D
:1013B00022F440325A601A46526842F440325A606F
:1013C0001A465268154B1A40134B5A601A46526817
:1013D000134B1A43104B5A601A46126842F080723F
:1013E0001A6000BF0C4A126802F00072002AF9D09D
:1013F000094A526822F00302074B5A601A465268A3
:1014000042F002025A6000BF034A526802F008022A
:10141000002AF9D07047000000100240FFFFC3F718
:101420000000280810B5FFF79BFF10BD2DE9F0471D
:1014300004460D460027B846B94600261D49601AE5
:101440008C421CD006DC1C48204470B1B0F5806F83
:101450001FD10FE0B0F5806F16D0B0F56C4F18D1EA
:101460000320FFF7BBFE074614E00220FFF7B6FE9D
:1014700007460FE00220FFF7B1FE07460AE0022010
:10148000FFF7ACFE074605E00220FFF7A7FE074680
:1014900000E000BF00BF07EB5500B0FBF5F64FF6CC
:1014A000F07006EA000806F00F0948EA0900A0609B
:1014B000BDE8F087004C004000BCFFBF10B540F213
:1014C0000E60FFF71DFF40F20260FFF719FF4FF4B7
:1014D0000073032218211948FFF762FD4FF480635F
:1014E000032204211548FFF75BFD154800F02AF898
:1014F0004FF4E1311248FFF799FF0021104800F046
:101500009EF800210E4800F08AF800210C4800F0F7
:1015100076F800210A4800F06AF80021084800F037
:101520005EF80421064800F072F80821044800F033
:101530007EF8034800F04EF810BD0000000801409E
:101540000038014010B504462049601A8C4228D06A
:1015500006DC1F48204490B1B0F5806F33D117E00E
:10156000B0F5806F26D0B0F56C4F2CD140F20E3024
:10157000FFF7E6FE40F20E30FFF7D2FE24E040F225
:101580001140FFF7DDFE40F21140FFF7C9FE1BE0FE
:1015900040F21240FFF7D4FE40F21240FFF7C0FEC7
:1015A00012E040F21340FFF7CBFE40F21340FFF78A
:1015B000B7FE09E040F21440FFF7C2FE40F21440CB
:1015C000FFF7AEFE00E000BF00BF10BD004C0040C2
:1015D00000BCFFBFC16841F40051C16070470A46BA
:1015E0000021416921F400711143416170470A46AD
:1015F0000021416921F48071114341617047C26843
:1016000022F4C062C260C2680A43C26070470A46E0
:101610000021C16821F004011143C16070470269D3
:1016200022F44052026102690A43026170470A468D
:101630000021C16821F008011143C1607047C268F0
:1016400022F48052C260C2680A43C2607047000040
:10165000000000000000000000000000000000008A
:1016600000F8000000000000003330000000001609
:101670000E00160E0000000000000000000040C038
:101680007840C0784000043F04043F040400007028
:1016900088FC08300000001820FF211E0000F00820
:1016A000F000E018000000211C031E211E0000F0C5
:1016B0000888700000001E21232419272110000033
:1016C00000160E00000000000000000000000000F6
:1016D00000E018040200000000071820400000028B
:1016E0000418E000000000402018070000004040FF
:1016F00080F0804040000202010F01020200000061
:1017000000F0000000000101011F010101000000C4
:1017100000000000000000B07000000000000000A9
:1017200000000000000000010101010101010000B2
:101730000000000000000030300000000000000049
:10174000000080601804006018060100000000E03E
:1017500010080810E000000F102020100F000010EB
:1017600010F8000000000020203F20200000007042
:10177000080808887000003028242221300000303A
:101780000888884830000018202020110E00000032
:10179000C02010F8000000070424243F240000F8B3
:1017A0000888880808000019212020110E0000E098
:1017B000108888180000000F112020110E0000383A
:1017C0000808C83808000000003F00000000007052
:1017D000880808887000001C222121221C0000E0DB
:1017E00010080810E0000000312222110F00000054
:1017F00000C0C00000000000003030000000000009
:1018000000C0C0000000000080B0700000000000B8
:101810008040201008000001020408102000404011
:101820004040404040000404040404040400000854
:101830001020408000000020100804020100007009
:1018400048080808F0000000003036010000C030F1
:10185000C828E810E0000718272423140B00000014
:10186000C038E0000000203C23020227382008F89E
:10187000888888700000203F202020110E00C03092
:10188000080808083800071820202010080008F869
:1018900008080810E000203F202020100F0008F862
:1018A0008888E8081000203F20202320180008F82E
:1018B0008888E8081000203F200003000000C030A6
:1018C00008080838000007182020221E020008F827
:1018D00008000008F808203F210101213F200008EE
:1018E00008F8080800000020203F20200000000029
:1018F0000808F8080800C08080807F00000008F811
:1019000088C028180800203F20012638200008F849
:10191000080000000000203F20202020300008F8B0
:10192000F800F8F80800203F003F003F200008F8CA
:1019300030C00008F808203F200007183F00E010E2
:1019400008080810E0000F10202020100F0008F8F1
:1019500008080808F000203F210101010000E01004
:1019600008080810E0000F18242438504F0008F829
:10197000888888887000203F2000030C3020007089
:101980008808080838000038202121221C00180887
:1019900008F8080818000000203F2000000008F8A0
:1019A00008000008F808001F202020201F000878E9
:1019B000880000C83808000007380E010000F80849
:1019C00000F80008F800033C0700073C0300081873
:1019D00068808068180820302C03032C30200838D9
:1019E000C800C83808000000203F20000000100890
:1019F0000808C838080020382621202018000000D8
:101A000000FE020202000000007F40404000000C87
:101A100030C000000000000000010638C0000002D5
:101A20000202FE000000004040407F000000002055
:101A30001008040810200000000000000000000052
:101A40000000000000008080808080808080000294
:101A5000040800000000000000000000000000007A
:101A60008080808000000019242222223F2008F874
:101A7000008080000000003F112020110E000000B7
:101A8000008080800000000E112020201100000046
:101A900000808088F800000E112020103F200000F8
:101AA000808080800000001F2222222213000080FC
:101AB00080F0888888180020203F20200000000047
:101AC000808080808000006B94949493600008F87C
:101AD000008080800000203F210000203F20008007
:101AE0009898000000000020203F20200000000007
:101AF00000809898000000C08080807F000008F877
:101B0000000080808000203F24022D30200000084B
:101B100008F8000000000020203F20200000808006
:101B2000808080808000203F20003F20003F008098
:101B300080008080000000203F2100203F20000026
:101B4000808080800000001F202020201F008080D7
:101B500000808000000080FFA12020110E00000006
:101B6000008080808000000E112020A0FF808080F7
:101B700080008080800020203F21200001000000A4
:101B80008080808080000033242424241900008079
:101B900080E0808000000000001F20200000808086
:101BA000000000808000001F202020103F20808047
:101BB00080000080808000010E30080601008080D7
:101BC0000080008080800F300C030C300F000080FC
:101BD0008000808080000020312E0E312000808027
:101BE00080000080808080818E7018060100008057
:101BF0008080808080000021302C22213000000075
:101C00000000807C020200000000003F4040000015
:101C10000000FF00000000000000FF0000000002C4
:101C2000027C800000000040403F00000000008077
:101C30004040800000800000000000010100000022
:101C4000000000000000002F000000000700070057
:101C500000147F147F1400242A7F2A120023130803
:101C60006462003649552250000000070000000061
:101C70001C224100000041221C000014083E0814F0
:101C80000008083E0808000000A0600000080808DE
:101C90000808000060600000002010080402003EF8
:101CA0005149453E0000427F400000426151494693
:101CB000002141454B31001814127F100027454583
:101CC0004539003C4A494930000171090503003695
:101CD0004949493600064949291E000036360000A8
:101CE00000005636000000081422410000141414AD
:101CF0001414000041221408000201510906003E9C
:101D00004955592E007C1211127C007F49494936F1
:101D1000003E41414122007F4141221C007F494950
:101D20004941007F09090901003E4149497A007F84
:101D30000808087F0000417F4100002040413F012A
:101D4000007F08142241007F40404040007F020C89
:101D5000027F007F0408107F003E4141413E007F2A
:101D600009090906003E4151215E007F09192946F3
:101D70000046494949310001017F0101003F4040CF
:101D8000403F001F2040201F003F4038403F00637D
:101D9000140814630007087008070061514945439F
:101DA00000007F4141000002040810200000414172
:101DB0007F00000402010204004040404040000057
:101DC00001020400002054545478007F48444438F1
:101DD00000384444442000384444487F0038545478
:101DE000541800087E0901020018A4A4A47C007FF6
:101DF000080404780000447D4000004080847D0099
:101E0000007F102844000000417F4000007C04183F
:101E10000478007C0804047800384444443800FC0A
:101E2000242424180018242418FC007C0804040826
:101E300000485454542000043F444020003C40409B
:101E4000207C001C2040201C003C4030403C0044D2
:101E500028102844001CA0A0A07C004464544C44DA
:101E60000000087F41000000007F00000000417F6B
:101E70000800000804081008A3AC000000000000DF
:101E800000000000000000000000000000583800C2
:101E90000000000000000000000000A1A3000000FE
:101EA0000000000000000000000000000000000032
:101EB0001824241800000000000000000000C4E303
:101EC00000008060F8074020180F08C8080828188C
:101ED00000010000FF00100C0340807F0001061885
:101EE00000BAC3001010F01F10F000808282E2924E
:101EF0008A868000402215081661000040807F001D
:101F000000000000CAC000202020FE2020FF20206A
:101F100020FF20202020000000007F404047444454
:101F200044474040400000BDE700000000FE9292A0
:101F300092FE929292FE0000000008080484621E45
:101F4000010001FE020404080800000000FF010176
:101F5000013109090909897101010101FFFF80802F
:101F6000808080809681808080808080FFFF0181DA
:101F70008181FD8991A1C1FD81818101FFFF808067
:101F800080809F888482819F80808080FF00000005
:101F9000B01F0008000000200C000000E80D000841
:101FA000BC1F00080C00002004240000F80D0008ED
:0C1FB00000000000000000000000000025
:0400000508000105E9
:00000001FF
