:020000040800F2
:100000003025002019010008FD120008B110000879
:10001000F91200080D0E0008891900080000000000
:10002000000000000000000000000000E1170008D0
:100030001D0F000800000000DF170008E31700088C
:1000400033010008330100083301000833010008C0
:100050003301000833010008D10F00080D1000081B
:1000600033010008330100083301000833010008A0
:100070003301000833010008330100083301000890
:100080003301000833010008330100083301000880
:100090003301000833010008330100083301000870
:1000A0003301000833010008330100083301000860
:1000B00033010008711800083301000833010008FB
:1000C0003301000833010008330100083301000840
:1000D000330100089D1800080919000833010008C1
:1000E000330100083301000833010008000000005C
:1000F0000000000000000000000000000000000000
:1001000033010008DFF80CD000F0B4FA00480047D3
:10011000A52A0008302500200648804706480047E9
:10012000FEE7FEE7FEE7FEE7FEE7FEE7FEE7FEE7A7
:10013000FEE7FEE7ED1700080501000810B50022F4
:1001400000E0521C835C8C5CA34201D1002BF8D1EF
:10015000D8B2E1B2401A10BD2DE9FE4F804681EAC7
:100160000300C00F0C46009021F0004123F0004531
:10017000B8EB0200A94105D24046214690461C46F4
:100180000B46024623F00040104347D0270DC7F32B
:100190000A00C3F30A510290401A019040286BDA1A
:1001A000C3F3130040F4801B0098924620B1002353
:1001B000D2EB030A63EB0B0B01985946C0F14002E6
:1001C000504600F0B0F906460D4650465946019A91
:1001D00000F0C8F910EB08006141002487EA1152D1
:1001E00084EAE7731A4340D0009A62B3019A012A65
:1001F0004FEA075215DC001B61EB02014FF0004291
:1002000002EA0752CDE90042001C41F58011324656
:100210002B4600F0C8F903B0BDE8F08F40462146F8
:10022000F9E7001B61EB0201001C41F58013001887
:100230005B412018A2F5001747EB030140EAD57097
:10024000B6196D4111E06D084FEA360645EAC075F2
:100250004FEA0752001B61EB0201001C41F58011BF
:1002600049084FEA30000019514132462B4603B08D
:10027000BDE8F04F00F088B900980122400000234B
:10028000D0EB020263EBE073009821464FEAE07482
:10029000B8EB000061EB0401E9E783F000435BE7A2
:1002A00081F0004158E72DE9FE4F81EA030404F094
:1002B000004421F0004100944FF0000B23F0004374
:1002C00050EA01045ED052EA03045BD0C3F30A543F
:1002D000C1F30A552C44A4F2F3340194A0FB025458
:1002E000C1F3130141F48011C3F3130343F48013EA
:1002F00001FB024400FB034E840A970A44EA81543E
:1003000047EA8357A4FB076802958D0A05FB07851A
:100310004FEA932C04FB0C542705029D4FEA065824
:1003200047EA1637B5EB08056EEB070C870E920E01
:1003300047EA811742EA8312A7FB0201B6EB0B01E1
:1003400064EB00042B0D43EA0C335E1844EB1C50A5
:10035000DA465146E7FB0201C5F313044FEA0B33BB
:1003600043EA14534FEA0432019C43EA0603A4F122
:100370000C040294009CCDE900B400F014F903B021
:10038000BDE8F08F00200146F9E72DE9F04D81EA44
:10039000030404F0004B21F0004514464FF0000A1E
:1003A00023F0004150EA050220D054EA01021DD09A
:1003B000C5F30A570246C5F31303C1F31300C1F393
:1003C0000A5640F4801543F48013A7EB0608101B6F
:1003D000D64608F2FD3873EB050002D308F1010898
:1003E00001E092185B41B8F1000F03DA00200146EA
:1003F000BDE8F08D00204FF48011064684460EE0E3
:10040000171B73EB050705D3121B63EB05030643AC
:100410004CEA010C49084FEA300092185B4150EA5F
:100420000107EDD152EA030012D082EA040083EA08
:100430000501084305D0101BAB4106D20122002361
:1004400006E000224FF0004302E06FF0010253107B
:100450001AEB06004CEB085110EB0A0041EB0B01C4
:10046000BDE8F04D00F090B830B5041E71F1000405
:1004700004DB4FF00044404264EB0101141E73F1B1
:10048000000405DB1C464FF00043524263EB0403BB
:10049000994208BF904230BD30B50B46014600205E
:1004A0002022012409E021FA02F59D4205D303FA36
:1004B00002F5491B04FA02F52844151EA2F10102B7
:1004C000F1DC30BD2DE9F05F0546002092469B46E9
:1004D00088460646814640241BE02846414647465A
:1004E000224600F02FF853465A46C01A914110D3C5
:1004F00011461846224600F016F82D1A67EB01083F
:100500004F4622460120002100F00DF817EB0009AC
:100510004E41201EA4F10104DFDC484631462A4644
:100520004346BDE8F09F202A04DB203A00FA02F19E
:10053000002070479140C2F1200320FA03F31943D1
:1005400090407047202A04DB203A21FA02F0002173
:10055000704721FA02F3D040C2F1200291400843D3
:1005600019467047202A06DBCB17203A41FA02F0E1
:1005700043EAE07306E041FA02F3D040C2F1200200
:10058000914008431946704710B5141E73F10004DA
:1005900008DA401C41F1000192185B411A4301D175
:1005A00020F0010010BD2DE9F04D92469B4611B19F
:1005B000B1FA81F202E0B0FA80F220329046FFF701
:1005C000B2FF04460F4640EA0A0041EA0B015346D7
:1005D0005A46084313D0114653EA010019D0C8F116
:1005E00040025046FFF7AEFF05460E4650465946BC
:1005F0004246FFF798FF084305D0012004E020465B
:100600003946BDE8F08D0020054346EAE0762C43EC
:1006100037430A986305E40AA0EB08000022FD0AAC
:1006200044EA47540A3002D500200146E9E70105B3
:1006300010196941DDE9084500196941BDE8F04D2F
:10064000A2E7C1F30A52C1F3130140F2FF3341F4B0
:1006500080119A4202DA00200146704740F233438B
:100660009A42A2F2334202DC5242FFF76BBFFFF71D
:100670005ABF0000064C074D06E0E06840F0010359
:1006800094E8070098471034AC42F6D3FFF73EFDDC
:10069000204000084040000800B587B040F20260EA
:1006A00002F09AFB40F2096002F096FB4FF4A06062
:1006B00002F092FB032002F0D9FA3023032200213A
:1006C0003B4802F06FF900213A4801F0B7FF3A4881
:1006D000009000208DF818003848029001208DF815
:1006E0001900000201908000039000208DF81A008C
:1006F00002200490000305906A4600212D4801F075
:10070000D5FF00212B4801F080FF0021294801F08E
:1007100063FF29484C3801F0F5FD002001F064FE2C
:100720000122110224484C3801F0D1FE012202219D
:1007300021484C3801F0CBFE4FF4602201211E48C5
:100740004C3801F038FE012211461B484C3801F0AC
:1007500013FE002118484C3801F0C9FD0222012186
:1007600015484C3801F0A0FD052304220021124851
:100770004C3801F047FE05231A4601210E484C383B
:1007800001F040FE0C484C3801F0EDFD012000F076
:10079000E5FB09484C3801F072FD07484C3801F080
:1007A000DDFD012104484C3801F082FE07B000BD98
:1007B00000080140000002404C2401400E000020CF
:1007C00010B500F08DFC10BD70B500244FF4006131
:1007D000164802F093F8002524E06006040E4FF45A
:1007E0008061124802F08AF800BF042000F0C2FBCA
:1007F00000BF4FF400610D4802F02AF908B144F03F
:10080000010400BF042000F0B5FB00BF4FF480617D
:10081000064802F071F800BF042000F0ABFB00BFF7
:10082000681CC5B2082DD8DB204670BD000C014005
:1008300070B5044600252AE004F0800028B14FF48A
:100840000061144802F05AF804E04FF400611148C6
:1008500002F052F86006040E00BF042000F08AFB8C
:1008600000BF4FF480610B4802F048F800BF04203D
:1008700000F080FB00BF4FF48061064802F03CF8B6
:1008800000BF042000F076FB00BF681CC5B2082D35
:10089000D2DB70BD000C014010B54FF400610E4872
:1008A00002F02CF800BF042000F064FB00BF4FF4FE
:1008B0008061094802F022F800BF042000F05AFBD2
:1008C00000BF4FF48061044802F016F800BF042016
:1008D00000F050FB00BF10BD000C014010B54FF4FC
:1008E0000061114802F00AF84FF480610E4802F0EE
:1008F00005F800BF042000F03DFB00BF4FF400618D
:10090000094801F0F9FF00BF042000F033FB00BFED
:100910004FF48061044801F0EFFF00BF042000F0B5
:1009200029FB00BF10BD0000000C014010B54FF4C2
:1009300000610E4801F0E0FF00BF042000F01AFB48
:1009400000BF4FF48061094801F0D8FF00BF0420C8
:1009500000F010FB00BF4FF40061044801F0CEFF2F
:1009600000BF042000F006FB00BF10BD000C0140DA
:1009700010B500244FF40061164801F0BFFF00BF1E
:10098000042000F0F7FA00BF4FF48061114801F035
:10099000B5FF00BF042000F0EDFA00BF07E0601CC7
:1009A000C4B2FA2C03D9FFF7C1FF002010BD4FF4E9
:1009B0000061084802F04CF80028F0D14FF4806143
:1009C000044801F099FF00BF042000F0D3FA00BFF3
:1009D0000120EBE7000C014010B5FFF7F1FE00BF6E
:1009E00049F6404000F0C6FA00BFFFF777FF7120DC
:1009F000FFF71EFFFFF7BCFF18B9FFF797FF0020B6
:100A000010BDFFF7E1FE0446FFF746FFFFF78EFF3C
:100A100004F00800E8B9FFF761FF7020FFF708FF56
:100A2000FFF7A6FFBE20FFF703FFFFF7A1FF082097
:100A3000FFF7FEFEFFF79CFF0020FFF7F9FEFFF730
:100A400097FFFFF773FF00BF42F2107000F092FAB9
:100A500000BF0120D4E710B500F05CFB10BD000022
:100A600070B500244FF40061134801F047FF0025E2
:100A70001EE06006040E4FF480610F4801F03EFF57
:100A8000042000F06BFA4FF400610B4801F0E0FF26
:100A900008B144F00104042000F060FA4FF48061D2
:100AA000054801F029FF042000F058FA681CC5B27F
:100AB000082DDEDB204670BD000C014010B54FF460
:100AC00000610E4801F018FF042000F047FA4FF4CF
:100AD00080610A4801F012FF042000F03FFA4FF451
:100AE0008061064801F008FF042000F037FA4FF457
:100AF0000061024801F002FF10BD0000000C01403F
:100B000070B50446002524E004F0800028B14FF4BD
:100B10000061114801F0F2FE04E04FF400610E485C
:100B200001F0EAFE6006040E042000F017FA4FF40C
:100B30008061094801F0E2FE042000F00FFA4FF452
:100B40008061054801F0D8FE042000F007FA681C17
:100B5000C5B2082DD8DB70BD000C014010B54FF4B4
:100B600000610B4801F0CAFE042000F0F7F94FF4D1
:100B70008061074801F0C2FE042000F0EFF94FF455
:100B80008061034801F0B8FE042000F0E7F910BDD1
:100B9000000C014010B54FF400610E4801F0AEFEAC
:100BA0004FF480610B4801F0A9FE042000F0D6F953
:100BB0004FF40061074801F09FFE042000F0CEF9D9
:100BC0004FF48061034801F097FE042000F0C6F95D
:100BD00010BD0000000C014010B54FF400610B483F
:100BE00001F08AFE042000F0B9F94FF48061074853
:100BF00001F084FE042000F0B1F94FF400610348D5
:100C000001F07CFE042000F0A9F910BD000C0140A9
:100C100010B500244FF40061134801F06FFE04206A
:100C200000F09CF94FF480610F4801F067FE04204A
:100C300000F094F907E0601CC4B2FA2C03D9FFF766
:100C4000CBFF002010BD4FF40061074801F000FF0A
:100C50000028F0D14FF48061034801F04DFE0420DC
:100C600000F07CF90120EDE7000C014000B587B0F1
:100C7000FFF7F1FE012206A9D02000F083F89DF8CD
:100C80001800582802D0002007B000BD182269467D
:100C9000882000F077F89DF800009DF8011040EAE8
:100CA0000120374908809DF802009DF8031040EAB2
:100CB000012000B2324948809DF804009DF80510DB
:100CC00040EA012000B22E4988809DF806009DF878
:100CD000071040EA01202A49C8809DF808009DF8C5
:100CE000091040EA012000B2254908819DF80A0058
:100CF0009DF80B1040EA012000B2214948819DF87F
:100D00000C009DF80D1040EA012000B21C498881BA
:100D10009DF80E009DF80F1040EA012000B218491E
:100D2000C8819DF810009DF8111040EA012000B222
:100D3000134908829DF812009DF8131040EA012023
:100D400000B20F4948829DF814009DF8151040EA42
:100D5000012000B20A4988829DF816009DF81710FC
:100D600040EA012000B20649C8822721F42000F0A1
:100D700036F80021F52000F032F8012084E7000069
:100D8000180500202DE9F04107460E461546FFF7ED
:100D900001FFEE20FFF7B4FEFFF73AFF3846FFF7FA
:100DA000AFFEFFF735FFFFF7F5FEEF20FFF7A8FED8
:100DB000FFF72EFF00240CE0FFF752FE3055681EAF
:100DC000A04202D1FFF7CAFE01E0FFF777FE601CE8
:100DD000C4B2AC42F0DBFFF7FFFEBDE8F08170B5B6
:100DE00005460C46FFF7D6FEEE20FFF789FEFFF71B
:100DF0000FFF2846FFF784FEFFF70AFF2046FFF7A4
:100E00007FFEFFF705FFFFF7E7FE70BD00BFFEE7BF
:100E100010B50021084600F059F810BD10B5322178
:100E20004FF4FA6000F052F810BD000000B587B032
:100E300040F2026001F0D0FF40F2017001F0CCFFFF
:100E40004023032218211F4801F0ACFD1E4802F088
:100E5000F1F96B20ADF80C000020ADF80E00ADF8F4
:100E6000100040F2E73005900020ADF8180003A90B
:100E7000154802F053FA684602F0D3F90120ADF8A4
:100E800000000020ADF80200ADF80400ADF8080045
:100E90006A4600210C4802F061F8002211460A4817
:100EA00002F07FF960220021074802F04DF900228C
:100EB0001146054802F088F9034802F029FA07B004
:100EC00000BD000000080140000400402DE9F04191
:100ED00005460C4604B135B9002211460D4802F012
:100EE00060F9BDE8F0810C4890FBF5F6322C00DD8E
:100EF000322406FB04F06421B0FBF1F7711E0548B3
:100F000002F02AF8BAB20021024802F04AF900BF02
:100F1000E7E700000004004040420F007047000077
:100F20000C48006820F080700A4908600846006894
:100F300040F0807008600848006820F00100064911
:100F400008600846006840F0010008600020486022
:100F500070470000FCED00E0001000E070B50446B2
:100F6000002504E04FF47A7000F004F86D1CA542EF
:100F7000F8D370BD2DE9F0410646134844680027B8
:100F8000012001F097FE07461048B7FBF0F000FB88
:100F900006F50D4840682844A0420CD200BF0A481C
:100FA0004068A042FBD800BF074841686042281A49
:100FB0008142F9D305E000BF03484068001BA84206
:100FC000FAD3BDE8F0810000001000E040420F00BD
:100FD00010B5012001F072FC012812D1012109484D
:100FE00001F036FD50B90221064801F031FD28B963
:100FF00005480088401E00B203490880012001F026
:1010000057FC10BD000C01400800002010B5022064
:1010100001F054FC012812D10221094801F018FD09
:1010200050B90121064801F013FD28B90548008890
:10103000401C00B203490880022001F039FC10BDB9
:10104000000C01400800002010B540F2036001F0E0
:10105000C3FE4FF4C06001F0BFFE03231A464821CF
:10106000124801F09FFC0021012001F04FFC0121FA
:10107000084601F04BFC01220021104601F0BAFBAA
:1010800001220021022001F0B5FB012001F010FC3B
:10109000022001F00DFC01221146062001F07CFD2A
:1010A00002220121072001F077FD10BD000C014054
:1010B00000BFFEE710B540F2036001F08DFEC023D3
:1010C00003221421054801F06DFC4021034801F082
:1010D00015FC8021014801F011FC10BD000C0140FD
:1010E00010B540F2036001F077FE4FF44063032235
:1010F0001421074801F056FC4FF48061044801F0C8
:10110000FDFB4FF40061024801F0F8FB10BD000048
:10111000000C014010B540F2036001F05DFE4FF499
:10112000406303221421074801F03CFC4FF4806126
:10113000044801F0E3FB4FF40061024801F0DEFBDC
:1011400010BD0000000C014010B5FFF7B3FF10BD4B
:1011500010B540F2026001F03FFE03231A4614214D
:10116000054801F01FFC0121034801F0C7FB0221E3
:10117000014801F0C3FB10BD0008014010B5FFF7A6
:10118000E7FF10BD10B580210F4801F0B7FB4021EB
:101190000D4801F0B3FB00BF0420FFF7EBFE00BFDA
:1011A0008021094801F0A8FB00BF0420FFF7E2FE00
:1011B00000BF4021044801F09FFB00BF0420FFF75F
:1011C000D9FE00BF10BD0000000C014010B5802109
:1011D0000D4801F091FB00BF0420FFF7CBFE00BFDC
:1011E0004021094801F08AFB00BF0420FFF7C2FE3E
:1011F00000BF8021044801F081FB00BF0420FFF7FD
:10120000B9FE00BF10BD0000000C014070B540F2F7
:10121000046001F0E1FD4FF42043032248210C4813
:1012200001F0C0FB0A20FFF799FE4FF40041084887
:1012300001F00EFC04464FF40051054801F008FC93
:1012400005462246294603A000F0A0FB70BD000021
:10125000001001404B65795F496E69742028495040
:1012600055293A204B4559313D2564204B4559328B
:101270003D2564200D0A000070B504460025012CB0
:1012800001D11B4908701A48007800B34FF400518F
:10129000184801F0DDFB28B14FF40041154801F07A
:1012A000D7FBA0B90A20FFF759FE002010490870AB
:1012B0004FF400510F4801F0CBFB00B901254FF46A
:1012C00000410C4801F0C4FB80B902250EE04FF448
:1012D0000051084801F0BCFB012807D1C1030548B3
:1012E00001F0B6FB012801D101490870284670BD04
:1012F000120000200010014000BFFEE77047000010
:1013000000200CE0002106E00022064B03EBC01396
:101310005A544A1CD1B28029F6DB421CD0B20828AC
:10132000F0DB7047980000202DE9F04304460D469D
:1013300016461F46284638E0224631E0002A2DDBBB
:101340007F2A2BDC002829DB3F2827DC4FEAE07CC2
:1013500000EB5C7C4FEAEC0CDFF8588008EBCC1C0F
:101360001CF802C003464FEAE07800EB58784FEAD9
:10137000E808A0EBC8094FF0010808FA09F82CEAC0
:10138000080C01464FEAE07800EB58784FEAE8088D
:10139000DFF8209009EBC81808F802C0511C0AB207
:1013A000A1199142CADC411C08B2E9198142C3DC8F
:1013B000BDE8F0839800002070B5054600242EE0BB
:1013C0004021214801F098FA00BF0220FFF7D2FD2A
:1013D00000BF80202041284020B180211A4801F020
:1013E0008DFA03E08021184801F086FA00BF022040
:1013F000FFF7C0FD00BF4021134801F07FFA00BF96
:101400000220FFF7B7FD00BF40210F4801F074FA3A
:1014100000BF0220FFF7AEFD00BF601CC4B2082C65
:10142000CEDB4021084801F069FA00BF0220FFF737
:10143000A1FD00BF4021044801F05EFA00BF022078
:10144000FFF798FD00BF70BD000C014010B5FFF71D
:101450007BFEAE2000F09CF9D52000F099F98020A9
:1014600000F096F9A82000F093F93F2000F090F9E1
:10147000D32000F08DF9002000F08AF9402000F020
:1014800087F9A12000F084F9C82000F081F9DA2062
:1014900000F07EF9122000F07BF9812000F078F94D
:1014A000CF2000F075F9D92000F072F9F12000F09A
:1014B0006FF9DB2000F06CF9302000F069F9A4200E
:1014C00000F066F9A62000F063F98D2000F060F9C5
:1014D000142000F05DF9AF2000F05AF9FFF710FF7B
:1014E00000F042F910BD70B505460C4645F0B0005D
:1014F00000F04EF9102141EA141000F049F904F00F
:101500000F0000F045F970BDF8B506460F461446C9
:101510001D46082D0CD1A4F120000E4901EB00104E
:101520001023082239460090304600F017F80FE0EB
:10153000062D0DD1A4F1200000EB4000064901EB7F
:1015400040000823062239460090304600F006F895
:10155000F8BD0000DE360008CE3C00082DE9FF4F44
:1015600080460E469146DDF834B0002500244A46F8
:1015700031464046039BFFF7D7FE00BF5EE00025E3
:1015800058E008EB0500002852DB08EB05007F2837
:101590004EDC3046F11706EB5171C9100FB2F1174E
:1015A00006EB5171C910A6EBC10A002E05DA781EB0
:1015B00007B20AF108000FFA80FA3819002817DB81
:1015C0003819072814DC3819224901EBC01008EB40
:1015D0000501405C04FB09511BF8011001FA0AF1F6
:1015E000084339191B4A02EBC11108EB0502885464
:1015F0003819401C00281BDB3819401C072817DC51
:101600003819401C134901EBC01008EB0501405C80
:1016100004FB09511BF80110CAF1080211410843EB
:101620003919491C0B4A02EBC11108EB0502885419
:10163000681CC5B24D45A4DB601CC4B20399481EAA
:10164000C11700EB5171012202EBE101A14296DCCE
:10165000BDE8FF8F980000202DE9FE4F07468A461F
:10166000144698460025AB46002672E0605D00F007
:10167000800058B94FF0010B2846691C8DB2205CE0
:101680008DF8040000208DF8050013E04FF0020BE8
:101690002846691C8DB2205C8DF80400605D00B99D
:1016A0005AE02846691C8DB2205C8DF805000020A8
:1016B0008DF80600BBF1010F0BD19DF80420B9197C
:1016C00008B243465146FFF71FFF06EB080086B2FB
:1016D0003FE04FF000090EE0C9EBC90101EB8101C9
:1016E0001F4A881801A9FEF729FD00B90EE009F18B
:1016F00001001FFA80F9C9EBC90101EB8101184A09
:10170000881818A1FEF71AFD0028E5D100BFB8F12E
:10171000080F12D1C9EBC90000EB80001049084442
:10172000C01CB919009008B210231A465146FFF7A1
:1017300015FF06F1100086B20BE0B8F1060F08D1D4
:10174000B91908B206233F225146FFF7DDFEB01D4E
:1017500086B2605D002889D100BFBDE8FE8F000021
:10176000083F00080000000010B500240BE0002135
:101770002046FFF7B8FE054901EBC410802100F0B8
:1017800017F8601CC4B2082CF1DB10BD98000020D3
:1017900010B50446FFF7F6FC7820FFF70DFE002099
:1017A000FFF70AFE2046FFF707FEFFF70FFD10BD0B
:1017B00070B505460E46FFF7E5FC7820FFF7FCFD07
:1017C0004020FFF7F9FD002404E0285DFFF7F4FD59
:1017D000601CC4B2B442F8DBFFF7F8FC70BD704780
:1017E000704710B500F0ECFE10BD000010B51C48AD
:1017F000006840F001001A4908600846406820F07F
:10180000030048600846006816490840144908600B
:101810000846406814490840114948600846006875
:10182000104908400E4908600846006820F48020EE
:101830000860084640680D49084009494860084664
:10184000006808490840064908604FF41F00886096
:1018500001F054FB00214FF0006001F0FDF910BDD4
:1018600000100240FFFFF6FE0C00FFE8FFFF00F74C
:1018700010B50121074801F0C8FD012809D1012157
:10188000044801F0BFFD04480078012801D101F0AF
:10189000E7F810BD000400400D00002010B5154908
:1018A000154801F0D8FE18B3134801F051FEC4B238
:1018B00012480088802817DA1148104909884454D2
:1018C0000E480088401C0D4908800A2C0FD10120C9
:1018D0000C49087009480088802808DA0021084867
:1018E000064A1288815402E000200449088000BFA3
:1018F00010BD000005030500003801400400002071
:10190000180000200600002010B51949194801F000
:10191000A2FE10B1174801F01BFE1749154801F04F
:101920009AFE18B3134801F013FEC4B2134800889E
:10193000802817DA12481149098844540F48008852
:10194000401C0E4908800A2C0FD101200D49087057
:101950000A480088802808DA00210948074A1288C6
:10196000815402E000200549088000BF10BD00003E
:101970000005030000440040050305000A000020A4
:10198000980400200C00002000BFFEE70FB4054BB8
:1019900010B503A9044A029800F0DAF810BC5DF80B
:1019A00014FB0000D52800081400002002E008C83D
:1019B000121F08C1002AFAD170477047002001E0C9
:1019C00001C1121F002AFBD1704700002DE9FF5F03
:1019D00082B00021DDE90430020DDDF840B00343A0
:1019E00018D044F61050A2F2FF3242431514119859
:1019F00001281FD0A5EB0B00401C5FEA000A4FF046
:101A000000064E4FDFF83891B046504615D5CAF162
:101A1000000413E0119801244AA3012801D16FEAC0
:101A20000B010298119AC0E90031C0E9024206B0E8
:101A3000BDE8F09FCBF10000DFE704460021404AFB
:101A4000491842EB0450CDE9001012E0E00707D03E
:101A500032463B4640464946FEF725FC80468946CD
:101A600032463B4610461946FEF71DFC06460F4619
:101A70006410002CEAD1DDE90401DDE90023BAF1AC
:101A8000000F06DAFEF70FFC42464B46FEF70BFC52
:101A900005E0FEF77AFC42464B46FEF776FC04462C
:101AA0000E460022284BFEF7DFFC03D84FF0FF3034
:101AB000014607E00022254B20463146FEF74CFB4D
:101AC000FEF7BFFD102409E0002C0ADB0A220023E8
:101AD000FEF7F8FC039B30321A55641E50EA0102EF
:101AE000F2D1641C039AC4F111031444119A012A1F
:101AF00003D0012208430DD10AE0084304D000209E
:101B00004FF0110B119072E7A3EB0B056D1E0DE06A
:101B10005B4504DD4FF0000205F1010504E003DA46
:101B20004FF00002A5F10105002AECD002981199AE
:101B3000C0E90231C0E9004579E700000000144027
:101B40000000F03F300000000000F0430000E03FE4
:101B50002DE9FF4F95B09B468946064600250FE2CA
:101B6000252877D100242746F84A0121059400E072
:101B7000044316F8013F203B01FA03F01042F7D16D
:101B800030782A2811D06FF02F033078A0F130027E
:101B9000092A16D8059A44F0020402EB820203EBEC
:101BA00042021044761C0590EFE759F8042B059289
:101BB000002A03DA504244F40054059044F0020431
:101BC000761C30782E2816D116F8010F44F0040444
:101BD0002A280DD06FF02F023078A0F13003092BA6
:101BE00009D807EB870302EB4303C718761CF3E71A
:101BF00059F8047B761C30786C280FD006DC4C2812
:101C000017D068280DD06A2814D104E0742810D0A9
:101C10007A280FD10DE044F400140AE044F4801453
:101C200001E044F440147278824202D104F5801439
:101C3000761C761C307866280BD013DC582877D0B9
:101C400009DC002875D04528F6D04628F4D047286E
:101C50001AD19DE118E0632835D0642879D0652831
:101C600012D195E1702873D008DC6728F1D069287B
:101C70006FD06E280DD06F2806D1B5E073282CD018
:101C8000752875D0782874D05A46179990476D1CDE
:101C900075E1C4F30250022809D003280DD0D9F809
:101CA000001004280DD00D6009F1040967E1D9F88E
:101CB0000010EA17C1E90052F6E7D9F800100D80CC
:101CC000F2E70D70F0E719F8041B8DF80010002002
:101CD0008DF80100EA46012003E059F804AB4FF00B
:101CE000FF3061074FF0000102D40DE008F101015F
:101CF0008846B9420FDA8045F8DB1AF80810002947
:101D0000F4D108E008F1010188468142FADB1AF8B3
:101D100008100029F6D105985B46A0EB080721467C
:101D20003846179A00F094FA284400EB080507E0BB
:101D30004DE029E10DE01AF8010B5A46179990473A
:101D4000B8F10108F7D25B4621463846179A13E1ED
:101D500042E00A220092C4F302524FF0000A022A23
:101D600008D059F804CB032A4FEAEC710AD00DE0F1
:101D700029E02AE009F1070121F00702F2E802C197
:101D8000914609E00FFA8CFC4FEAEC71042A03D16A
:101D90004FFA8CFC4FEAEC71002907DA0A46002161
:101DA000DCF1000C61EB02012D2202E0220504D5DA
:101DB0002B228DF80420012203E0E20701D020222B
:101DC000F7E7904659E00A2102E010220DE01021C9
:101DD0004FF0000A00910BE010224FF0000A44F08F
:101DE00004040827009203E008224FF0000A009242
:101DF000C4F30252022A05D059F804CB0021032A69
:101E000008D009E009F1070121F00702F2E802C158
:101E1000914605E01FFA8CFC042A01D10CF0FF0C5E
:101E20004FF00008220728D5702806D0009B83F0C9
:101E3000100353EA0A0305D00EE040228DF8042077
:101E4000012208E05CEA010206D030228DF804206D
:101E50008DF8050002229046009B83F0080353EAA8
:101E60000A030AD15CEA010201D1620705D53022DA
:101E70008DF804204FF001087F1E582804D034A0AC
:101E800003900EA802900DE036A0F9E75346604695
:101E9000009AFEF717FB84460398825C0298401E66
:101EA000029002705CEA0100F0D1029806A9081ABB
:101EB00000F1200A600702D524F4803400E00127F5
:101EC000574502DDA7EB0A0000E0002000EB0A0105
:101ED000009005984144401A0590E00306D45B4603
:101EE0002146179A059800F0B3F90544002706E04B
:101EF00001A85A46C05D179990476D1C7F1C474545
:101F0000F6DBE0030CD55B462146179A059800F0F6
:101F10009FF9054404E030205A46179990476D1CFC
:101F20000099481E00900029F5DC08E0029802990B
:101F30005A460078491C0291179990476D1CBAF1D6
:101F40000001AAF1010AF1DC65E1000009280100A5
:101F5000303132333435363738396162636465661F
:101F600000000000303132333435363738394142E1
:101F7000434445460000000000F058F90544761C33
:101F8000307800287FF4ECAD19B02846BDE8F08F1A
:101F9000620700D4062709F1070222F0070CFCE8CB
:101FA0000223E14603F000485FEA080C02D00FF27A
:101FB000702C0DE05FEA045C02D50FF2682C07E09C
:101FC0005FEAC47C02D00FF2602C01E0AFF2700C2B
:101FD0004FF0FF3823F00043CDF850C065280CD0F7
:101FE00006DC452809D046281DD047283DD13DE0D4
:101FF000662818D067287ED138E00021112F01DB38
:10200000112000E0781CCDE9000106A90EA8FFF719
:10201000DDFCDDE90F010E9A03910021009207F12A
:10202000010A04914DE04FF000400097CDE9011006
:1020300006A90EA8FFF7CAFCDDE90F0203920E9B6A
:1020400011990022DDF80CA00093049211B9791CBB
:1020500000EB010AB7EB0A0004D4C0F1FF3007F12E
:10206000010A0490AAEB0700019044E0012F00DA76
:1020700001270021112F01DD112000E03846CDE9B4
:10208000000106A90EA8FFF7A1FCDDE90F010E9AD9
:102090000391002104910092BA4621070CD40399C0
:1020A000514500DA8A46BAF1010F05DD009AAAF11E
:1020B0000101515C302908D0B84202DA10F1040F56
:1020C00006DA0121CDE9011015E0AAF10101E9E7E5
:1020D000002805DC049901440491AAEB000102E008
:1020E000411C514500DD8A460499401A401C01906C
:1020F0004FF000400290200704D40198504501DBC6
:10210000CDF8048000208DF84F0002980DF14F07A4
:10211000B0F1004F25D02B200E9002984FF002080E
:1021200000280CDA404202902D200E9007E00A2190
:102130000298FEF7B1F93031029007F8011DB8F1AD
:102140000001A8F10108F2DC02980028EFD1791E05
:102150000E980870307800F0200040F0450007F835
:10216000020D12A8C01B00F107081498007800B1F6
:10217000012000EB0A01019801EBE0710598414450
:10218000401A401E0590E00306D45B462146179A8C
:10219000059800F05DF805441498007818B15A4687
:1021A000179990476D1CE00324D55B462146179A8A
:1021B000059800F04DF805441CE00498002807DB62
:1021C000DDE90301884203DD0098405C179901E0D6
:1021D000179930205A469047049805F10105401C94
:1021E00004900198401E019004D12E205A46179960
:1021F00090476D1CBAF10001AAF1010ADDDC05E08F
:1022000017F8010B5A46179990476D1CB8F1000159
:10221000A8F10108F4DC5B462146179A0598ABE665
:102220002D0000002B000000200000002DE9F041EF
:10223000044600251E461746880404D405E03946A6
:102240002020B0476D1C641EF9D52846BDE8F081FA
:102250002DE9F041044600251E469046C80301D5ED
:10226000302700E02027880404D505E041463846A1
:10227000B0476D1C641EF9D52846BDE8F081816821
:1022800041F00801816000BF816801F00801002968
:10229000FAD1816841F00401816000BF816801F0DA
:1022A00004010029FAD1704730B5012902D0022972
:1022B0001AD10CE0C36A23F47003C362C36A541ECC
:1022C0004FF4700505EA04542343C3620DE0836BA9
:1022D00023F440138363836B541E4FF4401505EAC7
:1022E00004542343836300E000BF00BF30BD21B12D
:1022F000826842F40062826003E0826822F4006235
:102300008260704710B504461348204430B1B0F5E0
:10231000806F0CD0B0F5C05F1BD111E040F20930E6
:1023200000F07AFD40F2093000F066FD12E040F264
:102330000A3000F071FD40F20A3000F05DFD09E066
:1023400040F20F3000F068FD40F20F3000F054FD15
:1023500000E000BF00BF10BD00DCFEBF816841F49B
:10236000807181607047816801F0010119B981684D
:1023700041F001018160704772B101F001031BB1AE
:10238000836843F48013836001F0020393B1836890
:1023900043F4004383600DE001F001031BB1836847
:1023A00023F48013836001F002031BB1836823F4DC
:1023B000004383607047012902D0022910D107E051
:1023C000836823F46023836083681343836008E099
:1023D000836823F4E043836083681343836000E0F1
:1023E00000BF00BF704700000549096821F4702153
:1023F000034A1160114609680143116070470000EB
:1024000004240140F0B51D4606290CDA436B01EBAC
:1024100081071F26BE40B34301EB810602FA06F690
:102420003343436322E00C290EDA036B8E1F06EB65
:1024300086071F26BE40B3438E1F06EB860602FAB0
:1024400006F63343036311E010290FDAC36AA1F1E2
:102450000C0606EB86071F26BE40B343A1F10C060F
:1024600006EB860602FA06F63343C3620A2A0CDA42
:10247000046902EB42070726BE40B44302EB420662
:1024800005FA06F63443046111E0122A0FDAC46833
:10249000A2F10A0606EB46070726BE40B443A2F1A6
:1024A0000A0606EB460605FA06F63443C460F0BD9C
:1024B00001F001021AB1826842F48002826001F0E8
:1024C00002021AB1826842F4001282607047AAB117
:1024D00001F480731BB1436843F48073436001F4DB
:1024E00080631BB1436843F48063436001F00203DF
:1024F000CBB1836843F00203836014E001F480737E
:102500001BB1436823F48073436001F480631BB103
:10251000436823F48063436001F002031BB18368C6
:1025200023F002038360704710B540F2117000F091
:1025300053FC40F2026000F04FFC042303221821F8
:102540001D4800F02FFA0823032204211A4800F046
:1025500029FA1A4801F006F84FF41651174800F00E
:1025600061FF0021154801F0B2F80021134801F085
:102570009EF80021114801F08AF800210F4801F06F
:1025800055F800210D4801F049F804210B4801F0ED
:1025900086F80821094801F092F80022012126203E
:1025A00000F0FAFA40F20531044801F047F8034818
:1025B00001F020F810BD0000000801400044004078
:1025C0000448006820B103480068401E01490860C3
:1025D000704700000000002070B505460C462146FB
:1025E000284600F0FBF808B900BFFEE704EB8400C2
:1025F000810005F10800405840F0010104EB84001F
:10260000820005F10800815070BD70B505460C468A
:102610002146284600F0E2F808B900BFFEE704EBC7
:102620008400810005F10800405840F0200104EBCF
:102630008400820005F10800815070BD70B5044629
:102640000D462946204600F0C9F808B900BFFEE74C
:1026500005EB8500810004F10800405820F00101DD
:1026600005EB8500820004F108008150002105EB94
:102670008500820004F10800815005EB850082008E
:1026800004F10C00815005EB8500820004F110007C
:10269000815005EB8500820004F1140081506068D0
:1026A000AA000F2191400843606070BD2DE9F04100
:1026B00004460D4616462946204600F08FF808B914
:1026C00000BFFEE705EB8500820004F110003168D1
:1026D000815005EB8500820004F11400B16881503F
:1026E000308A81B205EB8500820004F10C00815034
:1026F00005EB8500810004F10800475827F47C575A
:10270000F1687068084371690843074305EB850069
:10271000810004F108004750307E01280ED105EBFE
:102720008500810004F10800405840F0400105EBAD
:102730008500820004F1080081500DE005EB850062
:10274000810004F10800405820F0400105EB8500AD
:10275000820004F108008150707E01280ED105EB43
:102760008500810004F10800405840F0800105EB2D
:102770008500820004F1080081500DE005EB850022
:10278000810004F10800405820F0800105EB85002D
:10279000820004F108008150B07E70B905EB85001D
:1027A000810004F10800405820F0100105EB85007D
:1027B000820004F1080081500DE005EB85008100E6
:1027C00004F10800405840F0100105EB850082003C
:1027D00004F108008150BDE8F081000002460120AC
:1027E000034B9A4202D1042900DD0020704700000B
:1027F0000004024010B52D4B1B6883432B4C236013
:10280000231D1B688343241D2360231D1B688343F2
:10281000241D2360231D1B688343241D236011B1E5
:1028200001290ED105E0214B1B6803431F4C236097
:1028300008E01E4B1B1D1B6803431C4C241D23601A
:1028400000E000BF00BF32B1012A11D0022A1CD023
:10285000032A27D127E0154B08331B680343134C89
:1028600008342360231D1B688343241D23601BE061
:102870000E4B08331B6883430C4C08342360231D24
:102880001B680343241D23600EE0084B08331B68BC
:102890000343064C08342360231D1B680343241D97
:1028A000236001E000BF00BF00BF10BD0004014075
:1028B00001490860704700001404014001460448C3
:1028C0000068084008B1012070470020FCE70000C4
:1028D0001404014070B504460D46E1B2054800F00D
:1028E0003CFE00BF0721034800F089FE0028F9D014
:1028F000204670BD0038014041617047016170475A
:102900000AB1016100E041617047000010B500228A
:102910008B071C0F0F2303FA04F204290EDA204B55
:102920009B6893431E4CA36023469B688C07240F2F
:1029300000FA04F423431A4CA3602FE008290EDAAE
:10294000174BDB689343164CE3602346DB688C0728
:10295000240F00FA04F42343114CE3601EE00C2919
:102960000EDA0F4B1B6993430D4C236123461B6901
:102970008C07240F00FA04F42343094C23610DE073
:10298000074B5B699343064C636123465B698C0785
:10299000240F00FA04F42343014C636110BD0000CE
:1029A00000000140F0B5044616460025002201F063
:1029B0000F0501F0100707B1354300201EE0012785
:1029C00087401F40C7B122684FEA800C0F2707FAE3
:1029D0000CF7BA43870005FA07F73A43282904D1D0
:1029E000012787401F40676105E0482903D101277F
:1029F00087401F4027612260471CB8B20828DED3F9
:102A0000082022E0012787401F40E7B16268A0F15B
:102A100008074FEA870C0F2707FA0CF7BA43A0F113
:102A20000807BF0005FA07F73A43282904D1012710
:102A300087401F40676105E0482903D1012787408F
:102A40001F4027616260471CB8B21028DAD3F0BD7E
:102A500002469068084008B1012070470020FCE75A
:102A600010B54FF400510648FFF7F2FFC0F1010026
:102A7000C4B222464FF400510148FFF741FF10BD98
:102A80000010014010B540F2046000F0A5F94FF4C9
:102A90000053032210210248FFF784FF10BD0000FD
:102AA000001001404FF4A06000F0CCF8FFF7EAFFFF
:102AB000FEF736FA00F0FEFCFFF736FD00F022FAD2
:102AC000FEF7C4FCFEF7C0FAFEF758FBFDF784FFE3
:102AD000FEF7CCF8FEF79AFBFEF7A8F9FDF7DCFD50
:102AE000082318A201210846FEF7B6FD082317A205
:102AF00011210120FEF7B0FDFEF736FE15A0FEF70E
:102B000045FF18A0FEF742FF1BE00020FEF7B4FBD4
:102B1000044694B1012C02D0022C0CD105E016A081
:102B2000FEF734FFFEF77AF906E017A0FEF72EFF56
:102B3000FEF76EF900E000BF00BF0A20FEF70EFAB4
:102B400000BFE2E74E756D733A0000004C6967689C
:102B5000743A000068656C6C6F20776F726C640D5E
:102B60000A0000004B65792054657374205374612A
:102B700072740D0A000000004B45593120707265D7
:102B8000737365640D0A00004B45593220707265FD
:102B9000737365640D0A00002DE9F04103460D468C
:102BA000164600240027A0462448006800F4E06090
:102BB000B0F5A06F15D006DCB0F5407F18D0B0F5A9
:102BC000806F19D110E0B0F5C06F06D0B0F5E06F9E
:102BD00012D100274FF0040815E001274FF0030839
:102BE00011E00227B8460EE003274FF001080AE083
:102BF00004274FF0000806E04FF4A06000F022F830
:102C00000227B84600BF00BFC7F1040005FA00F470
:102C1000C8F104010F20C840304004432401084893
:102C2000C45403F01F01012088405911890001F1AB
:102C3000E021C1F80001BDE8F08100000CED00E0EA
:102C400000E400E002490143024A116070470000BD
:102C50000000FA050CED00E0024A0A400243024B74
:102C60001A60704780FFFF1F08ED00E00F4A5168AF
:102C70000F4A1140082814D2DFE800F004050607C7
:102C8000130A130B00BF00BF00BF41EA803109E007
:102C900000BF20F004004FF0805242EA803211431E
:102CA00000E000BF00BF014A5160704700100240C1
:102CB000FF3FFFEF2DE9F04F8BB007460020099052
:102CC0003EA090E8004CC068CDE905BECDF810A04C
:102CD00007900FF2EC0ADAE9000ACDE9020A0FF2D6
:102CE000E00ADAE9000ACDE9000A38484068C0F392
:102CF00081000A900A9820B1012804D0022829D125
:102D000003E0334928E0324926E03048406800F4C7
:102D10008038B8F5803F09D12D4C2C48406800F42C
:102D20000039B9F5003F02D1641000E0294C274872
:102D30004068C0F383422548406800F0006008B155
:102D400042F010020F2A01D2921C00E0521C04FB38
:102D500002F101E01E4900BF00BF1C484068C0F3FB
:102D6000031504A8465D21FA06F318484068C0F32D
:102D7000022502A8465D23FA06FC14484068C0F309
:102D8000C2251DF8056023FA06F0089037B1012F1F
:102D900006D0022F06D0032F0AD106E0099108E0E1
:102DA000099306E0CDF824C003E00898099000E0FC
:102DB00000BF00BF09980BB0BDE8F08F0000000015
:102DC0000000000001020304060708090010024089
:102DD00000127A0000093D00064A02EB90110968D2
:102DE00000F01F0301229A401143024B03EB9012A3
:102DF0001160704700100240064A02EB901109680A
:102E000000F01F0301229A409143024B03EB901202
:102E10001160704700100240064A02EB90110968E9
:102E200000F01F0301229A401143024B03EB901262
:102E30001160704700100240002000212C4A1268E7
:102E400042F480322A4B1A6000BF401C284A1268A4
:102E500002F4003119B94FF6FF729042F5D1244ABD
:102E6000126802F400320AB900BFFEE7204A526835
:102E70001F4B5A601A4652685A601A46526842F40A
:102E800080625A601A46526822F440325A601A46EA
:102E9000526842F440325A601A465268154B1A4042
:102EA000134B5A601A465268134B1A43104B5A6020
:102EB0001A46126842F080721A6000BF0C4A12680B
:102EC00002F00072002AF9D0094A526822F0030287
:102ED000074B5A601A46526842F002025A6000BF1D
:102EE000034A526802F00802002AF9D07047000035
:102EF00000100240FFFFC3F70000280810B5FFF7DD
:102F00009BFF10BD1FB540F20170FFF765FF002267
:102F100002211D20FFF740FE0E4800F08BF942F61B
:102F20002F20ADF800000020ADF80200ADF804003D
:102F300041F2873002900020ADF80C006946054848
:102F400000F0ECF90121034800F058FA014800F0C4
:102F5000DFF91FBD00040040C162704710B531B1F8
:102F600001293FD002297DD003297CD1BFE0036A2B
:102F700023F001030362836923F003038361036A7F
:102F8000148823430362036A23F002030362036A83
:102F90009488234303626A4B984202D0694B98425B
:102FA0001FD1036A23F004030362036A5488234396
:102FB0000362036A23F008030362036AD48823438D
:102FC0000362436823F48073436043681489234396
:102FD0004360436823F40073436043685489234388
:102FE0004360ABE0036A23F010030362836923F4B8
:102FF00040738361036A148843EA04130362036A1B
:1030000023F020030362036A948843EA04130362F3
:103010004B4B984202D04B4B984226D1036A23F087
:1030200040030362036A548843EA04130362036A99
:1030300023F080030362036AD48843EA0413036223
:10304000436823F4806343604368148943EA84033C
:103050004360436823F4006343604368548943EA50
:10306000840301E002E068E0436067E0036A23F460
:1030700080730362C36923F00303C361036A148886
:1030800043EA04230362036A23F400730362036ABE
:10309000948843EA04230362294B984202D0294BC7
:1030A000984223D1036A23F480630362036A54883D
:1030B00043EA04230362036A23F400630362036A9E
:1030C000D48843EA04230362436823F480534360B3
:1030D0004368148943EA04134360436823F40053AC
:1030E00043604368548943EA0413436026E0036A5B
:1030F00023F480530362C36923F44073C361036AFA
:10310000148843EA04330362036A23F4005303621E
:10311000036A948843EA04330362094B984202D05D
:10312000084B984208D1436823F4804343604368C6
:10313000148943EA8413436000E000BF00BF10BD60
:10314000002C01400034014031B101290CD002298A
:1031500013D0032922D118E0836923F0700383611F
:103160008369134383611AE0836923F4E043836135
:10317000836943EA0223836111E0C36923F070038A
:10318000C361C3691343C36109E0C36923F4E04326
:10319000C361C36943EA0223C36100E000BF00BF0B
:1031A000704731B1012906D0022906D0032908D180
:1031B00005E0426306E0826304E0C26302E0026469
:1031C00000E000BF00BF704731B101290CD00229D7
:1031D00013D0032922D118E0836923F00803836107
:1031E0008369134383611AE0836923F40063836175
:1031F000836943EA0223836111E0C36923F0080372
:10320000C361C3691343C36109E0C36923F4006365
:10321000C361C36943EA0223C36100E000BF00BF8A
:1032200070470021018041808180C18001814181FE
:103230007047000010B504463349601A8C4244D0F0
:103240000CDCB4F1804F1CD03048204410B3B0F5F2
:10325000806F28D0B0F5006F52D12DE0B0F5806FAF
:103260003CD0B0F58E3F03D0B0F5923F48D13EE060
:1032700040F20B30FFF7D0FD40F20B30FFF7BCFD02
:103280003FE04FF48060FFF7C7FD4FF48060FFF729
:10329000B3FD36E040F20140FFF7BEFD40F20140D1
:1032A000FFF7AAFD2DE040F20240FFF7B5FD40F226
:1032B0000240FFF7A1FD24E040F20340FFF7ACFD20
:1032C00040F20340FFF798FD1BE040F20440FFF797
:1032D000A3FD40F20440FFF78FFD12E040F20540ED
:1032E000FFF79AFD40F20540FFF786FD09E040F246
:1032F0000D30FFF791FD40F20D30FFF77DFD00E04E
:1033000000BF00BF10BD00000010004000FCFFBF68
:10331000016841F001010160704700000A88826283
:10332000294A904220D0B0F1804F1DD0274A9042C8
:103330001AD0274A904217D0264A904214D0264AE3
:10334000904211D0254A90420ED0254A90420BD08F
:10335000244A904208D0244A904205D0234A904201
:1033600002D0234A90420FD1026822F0700202601C
:1033700002688B7803F060031A43026002680B79DD
:1033800003F010031A4302608A68C262194A90422D
:103390000CD0194A904209D0026822F440720260AF
:1033A00002688B8903F440731A430260064A904214
:1033B00002D0094A904201D18A7B0263426942F0FD
:1033C0000102426170470000002C014000040040EF
:1033D00000080040000C004000340140004C014057
:1033E000005001400054014000180040001C004003
:1033F000002000400010004000140040C2680A4352
:10340000C2607047CA43026170470246D06800EA52
:1034100001031069084010B10BB101207047002072
:10342000FCE700002DE9F04704460D460027B846AA
:10343000B94600261D49601A8C421CD006DC1C4887
:10344000204470B1B0F5806F1FD10FE0B0F5806FF0
:1034500016D0B0F56C4F18D10320FFF72BFC0746B0
:1034600014E00220FFF726FC07460FE00220FFF7DA
:1034700021FC07460AE00220FFF71CFC074605E096
:103480000220FFF717FC074600E000BF00BF07EB74
:103490005500B0FBF5F64FF6F07006EA000806F0AE
:1034A0000F0948EA0900A060BDE8F087004C004021
:1034B00000BCFFBF10B540F20E60FFF78DFC40F27C
:1034C0000260FFF789FC4FF40073032218211E48A5
:1034D000FFF768FA4FF48063032204211A48FFF7CC
:1034E00061FA1A4800F03EF84FF4E1311748FFF74F
:1034F00099FF0021154800F0EAF80021134800F078
:10350000D6F80021114800F0C2F800210F4800F061
:103510008DF800210D4800F081F804210B4800F0DF
:10352000BEF80821094800F0CAF8002211462520FB
:10353000FFF732FB40F20531044800F07FF8034802
:1035400000F058F810BD00000008014000380140AC
:1035500001464868C0F308007047C1F308024260A2
:103560007047000010B504462049601A8C4228D0EC
:1035700006DC1F48204490B1B0F5806F33D117E0CE
:10358000B0F5806F26D0B0F56C4F2CD140F20E30E4
:10359000FFF742FC40F20E30FFF72EFC24E040F231
:1035A0001140FFF739FC40F21140FFF725FC1BE00A
:1035B00040F21240FFF730FC40F21240FFF71CFCD3
:1035C00012E040F21340FFF727FC40F21340FFF7F0
:1035D00013FC09E040F21440FFF71EFC40F21440D7
:1035E000FFF70AFC00E000BF00BF10BD004C004028
:1035F00000BCFFBFC16841F40051C160704710B505
:10360000024602EB9110006801F01F040123A34061
:10361000184008B1012010BD0020FCE70A46002137
:10362000416921F400711143416170470A4600214C
:10363000416921F4807111434161704710B5C1F3B4
:103640008912825801F01F040123A3401A43C1F3D9
:103650008913C25010BD70B5024600230024C1F387
:103660008910105801F01F060125B54000EA050336
:1036700002EB91500068C1F304460125B54000EA11
:10368000050414B10BB1012070BD0020FCE7C26835
:1036900022F4C062C260C2680A43C26070470A4630
:1036A0000021C16821F004011143C1607047026923
:1036B00022F44052026102690A43026170470A46DD
:1036C0000021C16821F008011143C1607047C26840
:1036D00022F48052C260C2680A43C2607047000090
:1036E00000000000000000000000000000000000DA
:1036F00000F8000000000000003330000000001659
:103700000E00160E0000000000000000000040C087
:103710007840C0784000043F04043F040400007077
:1037200088FC08300000001820FF211E0000F0086F
:10373000F000E018000000211C031E211E0000F014
:103740000888700000001E21232419272110000082
:1037500000160E0000000000000000000000000045
:1037600000E01804020000000007182040000002DA
:103770000418E0000000004020180700000040404E
:1037800080F0804040000202010F010202000000B0
:1037900000F0000000000101011F01010100000014
:1037A00000000000000000B07000000000000000F9
:1037B0000000000000000001010101010101000002
:1037C0000000000000000030300000000000000099
:1037D000000080601804006018060100000000E08E
:1037E00010080810E000000F102020100F0000103B
:1037F00010F8000000000020203F20200000007092
:103800000808088870000030282422213000003089
:103810000888884830000018202020110E00000081
:10382000C02010F8000000070424243F240000F802
:103830000888880808000019212020110E0000E0E7
:10384000108888180000000F112020110E00003889
:103850000808C83808000000003F000000000070A1
:10386000880808887000001C222121221C0000E02A
:1038700010080810E0000000312222110F000000A3
:1038800000C0C00000000000003030000000000058
:1038900000C0C0000000000080B070000000000008
:1038A0008040201008000001020408102000404061
:1038B00040404040400004040404040404000008A4
:1038C0001020408000000020100804020100007059
:1038D00048080808F0000000003036010000C03041
:1038E000C828E810E0000718272423140B00000064
:1038F000C038E0000000203C23020227382008F8EE
:10390000888888700000203F202020110E00C030E1
:10391000080808083800071820202010080008F8B8
:1039200008080810E000203F202020100F0008F8B1
:103930008888E8081000203F20202320180008F87D
:103940008888E8081000203F200003000000C030F5
:1039500008080838000007182020221E020008F876
:1039600008000008F808203F210101213F2000083D
:1039700008F8080800000020203F20200000000078
:103980000808F8080800C08080807F00000008F860
:1039900088C028180800203F20012638200008F899
:1039A000080000000000203F20202020300008F800
:1039B000F800F8F80800203F003F003F200008F81A
:1039C00030C00008F808203F200007183F00E01032
:1039D00008080810E0000F10202020100F0008F841
:1039E00008080808F000203F210101010000E01054
:1039F00008080810E0000F18242438504F0008F879
:103A0000888888887000203F2000030C30200070D8
:103A10008808080838000038202121221C001808D6
:103A200008F8080818000000203F2000000008F8EF
:103A300008000008F808001F202020201F00087838
:103A4000880000C83808000007380E010000F80898
:103A500000F80008F800033C0700073C03000818C2
:103A600068808068180820302C03032C3020083828
:103A7000C800C83808000000203F200000001008DF
:103A80000808C83808002038262120201800000027
:103A900000FE020202000000007F40404000000CD7
:103AA00030C000000000000000010638C000000225
:103AB0000202FE000000004040407F0000000020A5
:103AC00010080408102000000000000000000000A2
:103AD00000000000000080808080808080800002E4
:103AE00004080000000000000000000000000000CA
:103AF0008080808000000019242222223F2008F8C4
:103B0000008080000000003F112020110E00000006
:103B1000008080800000000E112020201100000095
:103B200000808088F800000E112020103F20000047
:103B3000808080800000001F22222222130000804B
:103B400080F0888888180020203F20200000000096
:103B5000808080808000006B94949493600008F8CB
:103B6000008080800000203F210000203F20008056
:103B70009898000000000020203F20200000000056
:103B800000809898000000C08080807F000008F8C6
:103B9000000080808000203F24022D30200000089B
:103BA00008F8000000000020203F20200000808056
:103BB000808080808000203F20003F20003F0080E8
:103BC00080008080000000203F2100203F20000076
:103BD000808080800000001F202020201F00808027
:103BE00000808000000080FFA12020110E00000056
:103BF000008080808000000E112020A0FF80808047
:103C000080008080800020203F21200001000000F3
:103C100080808080800000332424242419000080C8
:103C200080E0808000000000001F202000008080D5
:103C3000000000808000001F202020103F20808096
:103C400080000080808000010E3008060100808026
:103C50000080008080800F300C030C300F0000804B
:103C60008000808080000020312E0E312000808076
:103C700080000080808080818E70180601000080A6
:103C80008080808080000021302C222130000000C4
:103C90000000807C020200000000003F4040000065
:103CA0000000FF00000000000000FF000000000214
:103CB000027C800000000040403F000000000080C7
:103CC0004040800000800000000000010100000072
:103CD000000000000000002F0000000007000700A7
:103CE00000147F147F1400242A7F2A120023130853
:103CF00064620036495522500000000700000000B1
:103D00001C224100000041221C000014083E08143F
:103D10000008083E0808000000A06000000808082D
:103D20000808000060600000002010080402003E47
:103D30005149453E0000427F4000004261514946E2
:103D4000002141454B31001814127F1000274545D2
:103D50004539003C4A4949300001710905030036E4
:103D60004949493600064949291E000036360000F7
:103D700000005636000000081422410000141414FC
:103D80001414000041221408000201510906003EEB
:103D90004955592E007C1211127C007F4949493641
:103DA000003E41414122007F4141221C007F4949A0
:103DB0004941007F09090901003E4149497A007FD4
:103DC0000808087F0000417F4100002040413F017A
:103DD000007F08142241007F40404040007F020CD9
:103DE000027F007F0408107F003E4141413E007F7A
:103DF00009090906003E4151215E007F0919294643
:103E00000046494949310001017F0101003F40401E
:103E1000403F001F2040201F003F4038403F0063CC
:103E200014081463000708700807006151494543EE
:103E300000007F41410000020408102000004141C1
:103E40007F000004020102040040404040400000A6
:103E500001020400002054545478007F4844443840
:103E600000384444442000384444487F00385454C7
:103E7000541800087E0901020018A4A4A47C007F45
:103E8000080404780000447D4000004080847D00E8
:103E9000007F102844000000417F4000007C04188F
:103EA0000478007C0804047800384444443800FC5A
:103EB000242424180018242418FC007C0804040876
:103EC00000485454542000043F444020003C4040EB
:103ED000207C001C2040201C003C4030403C004422
:103EE00028102844001CA0A0A07C004464544C442A
:103EF0000000087F41000000007F00000000417FBB
:103F00000800000804081008A3AC0000000000002E
:103F10000000000000000000000000000058380011
:103F20000000000000000000000000A1A30000004D
:103F30000000000000000000000000000000000081
:103F40001824241800000000000000000000C4E352
:103F500000008060F8074020180F08C808082818DB
:103F600000010000FF00100C0340807F00010618D4
:103F700000BAC3001010F01F10F000808282E2929D
:103F80008A868000402215081661000040807F006C
:103F900000000000CAC000202020FE2020FF2020BA
:103FA00020FF20202020000000007F4040474444A4
:103FB00044474040400000BDE700000000FE9292F0
:103FC00092FE929292FE0000000008080484621E95
:103FD000010001FE020404080800000000FF0101C6
:103FE000013109090909897101010101FFFF80807F
:103FF000808080809681808080808080FFFF01812A
:104000008181FD8991A1C1FD81818101FFFF8080B6
:1040100080809F888482819F80808080FF00000054
:10402000404000080000002018000000AC19000803
:10403000584000081800002018250000BC1900088E
:104040000000000000000000000000000000000070
:08405000000001000000000067
:0400000508000105E9
:00000001FF
